:020000040000FA
:10000000D05E0020510100006B01000001080000DB
:1000100000000000000000000000000000000000E0
:10002000000000000000000000000000790900004E
:1000300000000000000000008508000081090000A9
:100040005D080000650800006D08000079080000E8
:10005000B7070000590E0000790E0000850E000061
:10006000350800003D080000690900007109000022
:100070001108000019080000410E0000490E0000A0
:10008000510E000029080000610E0000690E0000FA
:10009000710E00004D080000A50E00008D08000044
:1000A000A307000055080000910E0000990E000003
:1000B0004508000021080000BF070000AF0700004E
:1000C0000448854600F0C8FA004800477927000038
:1000D000C046C046D05E0020084B19680868203032
:1000E00080F30988022080F31488BFF36F8F3FBC30
:1000F000AE4608BC04BC62B61847000000000020F1
:10010000EFF3108072B6704780F310887047EFF3FA
:1001100009800E4B1A6820381060F0C044464D46E6
:1001200056465F46F0C008B572B603F0BFF862B637
:100130000CBC116808681030F0C8A046A946B24649
:10014000BB4680F309882038F0C81847000000201B
:1001500009480A4A002100A1814200D90244084806
:1001600002600848804708480047FEE7FEE7FEE7D0
:10017000FEE7FEE7FEE700000000002000000000B0
:1001800008ED00E0390E0000C100000030B50B465C
:10019000014600202022012409E00D46D5409D4261
:1001A00005D31D469540491B2546954040191546E7
:1001B000521E002DF1DC30BD03460B439B0703D0DC
:1001C00009E008C9121F08C0042AFAD203E00B781C
:1001D0000370401C491C521EF9D27047D2B201E094
:1001E0000270401C491EFBD270470022F6E710B592
:1001F00013460A4604461946FFF7F0FF204610BD95
:1002000030B505462A460B4610781C78521C5B1CFC
:10021000002801D0A042F7D0002C03D0002802D043
:100220006D1CEFE7284630BD421C0178401C0029B8
:10023000FBD1801A704703460A780270401C491CA3
:10024000002AF9D11846704730B50546002003460C
:1002500000E05B1C934205D2EC5CC85C201A01D123
:10026000002CF6D130BDF0B51FB40646002082B098
:1002700005464024019100901BE0019922460F465B
:10028000304600F00BFA049A059B801A994110D36E
:1002900010461946224600F0F1F9361A8F410197AF
:1002A000224601200021009F00F0E8F938184D4156
:1002B00000902046641E0028DFDC019B0098294640
:1002C000324607B0F0BD0000F0B50746084658407A
:1002D00087B0C00F049048000E46590040084908F6
:1002E000BC1A884105D2384631461E4617460B4691
:1002F00002465800400810434DD0300D0390400591
:100300005900400D490D0590401A0290402873DABB
:1003100018030121000B090508430190049800927D
:10032000002806D01146019A4942002090410091D0
:100330000190029840210A1A0199009800F09EF954
:1003400005460C466B4607CB00F0B9F9C019714160
:10035000039A0E0D0023D71756401A467A401643CB
:1003600044D0049A002A2DD0029A012A039A15DC5F
:100370001205C01A914101263605001C7141D20FA9
:10038000059ED2070093019202962A46234600F06A
:10039000B6F907B0F0BD38463146FAE71605234AEC
:1003A0000F46B218C01AB74101210905001C4F4180
:1003B00000187F41114618187941E20F10436D195A
:1003C000644113E0E2076D0815436408C207144353
:1003D000039A01261205C01A91413605001C71418D
:1003E000CE07400830434908C01851412A462346E9
:1003F00000F078F9CDE7FFE7049801224000C1172B
:10040000121A00238B4104983146C417381AA141AF
:10041000EEE730B40124E407634030BC54E730B465
:100420000124E407614030BC4EE700000000E0FF1B
:10043000F0B51FB488B00B99099800244840099979
:10044000C00F490049080991C0070B990090490065
:1004500049080B9109990898A64608431CD00B99A6
:100460000A98084318D0099801244000420D48001A
:10047000410D099824050003000B204309900B98B7
:100480000003000B20430B9050181C494018002219
:1004900001901446104605E0002001460DB0F0BD65
:1004A000032801DA034600E003239C46C11A0AAE82
:1004B0000AE05F0008ADED5B4F00F75B7D4300276E
:1004C000AA187C41491C5B1E6145F2DD410004AB6A
:1004D0005A522104120C0A43240C401C0828DFDB6A
:1004E000019802900099704601910090059B049A32
:1004F0000799069800F003F9D0E700000DFCFFFF14
:10050000F0B50C465C4085B0E40FE40703944C0062
:100510000026640859009446490802460296224380
:1005200021D062460A431ED06200570D4A000E03D6
:100530002303550D012402462C492405781B1B0B6F
:10054000360B401823432643614600901C46501A40
:10055000B44103D30098401C009002E09218009828
:100560005B41002803DA0020014605B0F0BD002001
:10057000012109050746864611E064461D46141B05
:10058000B54106D36546521BB341744607430C433D
:10059000A646CD0740084908284392185B41054606
:1005A0000D43EAD11046184313D060461946504017
:1005B0007140084306D06046101AB34106D20122AA
:1005C000002306E000220123DB0702E00122D243E0
:1005D0005310009874460105381C6141029C039D2C
:1005E0000019694100F07EF8BFE70000FD0300003C
:1005F0004A0009030123090B1B0519430A4B10B5D7
:10060000520D9A4202DA0020014610BD064B3433E7
:100610009A4203DC9A1A00F041F810BD034BD2183D
:1006200000F02CF810BD0000FF030000CDFBFFFF21
:1006300010B5002904DB0124E40740428C41214627
:10064000002B04DB1C460123DB075242A3419942E5
:1006500000D1904210BD0000064C0125064E05E079
:10066000E36807CC2B430C3C98471034B442F7D3D3
:10067000FFF72AFD9C380000BC38000010B5202A86
:1006800004DB0146203A9140002010BD9140202318
:100690009C1A0346E3401943904010BD10B5202A30
:1006A00004DB0846203AD040002110BD0B46D34061
:1006B000D0402024A21A91400843194610BD10B51D
:1006C000202A06DBCB170846203A1041C1170B43FE
:1006D00006E00B461341D0402024A21A9140084363
:1006E000194610BD10B5002B08DA0024401C6141EA
:1006F00092185B411A4301D14008400010BDF0B58B
:100700001FB482B005460C0003D0084600F0BEFCC2
:1007100002E000F0BBFC2030024600902146284653
:10072000FFF7ACFF049B059A04460F46184311439C
:10073000084314D0184610431BD0009840210A1AD1
:1007400018460599FFF7AAFF05460E46009A059937
:100750000498FFF793FF084305D0012004E02046EA
:10076000394607B0F0BD0020C11705430E432C43A6
:10077000374300990E986305401A7905E40A002270
:100780000C43FD0A0A3002D500200146E9E70105C5
:10079000101969410C9C0D9D00196941FFF7A2FFDA
:1007A000DFE710B5C046C046C046C04610BD10B514
:1007B000C046C04610BD10B5C046C04610BD10B5FD
:1007C000C046C046C046C04610BD000010B5014638
:1007D0000020084A084BDA62084ADA621A46126AAE
:1007E0000C239A438B000C2423401A43024B1A62B9
:1007F00010BD00005A5A000000000240A5A50000EC
:1008000008B50020009000BF00980028FCD008BD6B
:1008100010B5C046C04610BD10B5C046C04610BD9C
:1008200010B5C046C04610BD10B5C046C046C04653
:10083000C04610BD10B5C046C04610BD10B5C0467C
:10084000C04610BD10B5C046C04610BD10B5C0466C
:10085000C04610BD10B5C046C04610BD10B5C0465C
:10086000C04610BD10B5C046C04610BD10B5C0464C
:10087000C046C046C04610BD10B5C046C046C046C2
:10088000C04610BD10B5FFF742FC10BD10B5C04604
:10089000C04610BD10B500F009FB10BDF8B5044608
:1008A0000D4616460E4F00BF3878002801D100F0E3
:1008B000FDFA00BFEFF310800746012080F3108897
:1008C00000BF00BF32462946204600F00BF80090DA
:1008D000F8B280F3108800BF00BF0098F8BD000098
:1008E0007C530020F7B582B0074616460398019066
:1008F000182078431B494018009000984069002850
:1009000004D0012811D0022826D11EE0009800F062
:1009100005FB0546B54201D2002405E034463246C7
:100920000199009800F053FB18E0009800F0F6FAE7
:100930000546B54201D2284600E03046044622462C
:100940000199009800F043FB08E0324601990098B5
:1009500000F0FEFA044601E0002400BF00BF20467C
:1009600005B0F0BD9453002010B5C046C04610BD80
:1009700010B5C046C04610BD10B502F025FC10BD34
:1009800010B500F001F810BD10B502F0F1FC10BD7B
:10099000F8B505460C46002700F0CEFA002C01D031
:1009A000012000E0002004465048066A2B0000F0B9
:1009B00084FB050417394D7096004C4800684008C8
:1009C0004000E107C90F08434849086000BF002CF8
:1009D00005D04648C0680005C00F0028F7D080E069
:1009E0004248006A01210907884340183F490862CC
:1009F0003F48C068032108433D49C8603B48006840
:100A000002218843610002221140084337490860EF
:100A100000BF002C05D0354800694006C00F0028F3
:100A2000F7D05EE03148006804218843A100042229
:100A3000114008432D49086000BF002C05D02B4809
:100A40004069C004C00F0028F7D04AE02748006A78
:100A50000121090788434018244908622548C068D5
:100A60000321890308432349C860204800680821FE
:100A70008843E1000822114008431C49086000BF78
:100A8000002C05D0194880694006C00F0028F7D017
:100A900027E01648006A01210904884340181349D9
:100AA00008621548006840084000401C1249086070
:100AB000142000F0C1FF0D48006810218843210177
:100AC0001022114008430949086000BF002C05D0DE
:100AD0000648C06B4003C00F0028F7D001E0042790
:100AE00000BF00BF014806623846F8BD0020004044
:100AF000401D0240800D02400024004030B589B006
:100B000000241422564904A8FFF756FB5448143019
:100B100000680390002000900190029051480188E5
:100B2000684601814F4841886846C1804D488188A8
:100B3000684681804B48C1886846418049482030DA
:100B4000018868460180484800680006450F2B0070
:100B500000F0B3FA05042E303E4178004248C068E8
:100B60004005400D69460989884201D1089C1EE074
:100B70003D48C0684005400D6946C988884201D19A
:100B8000079C14E03848C0684005400D69468988D4
:100B9000884201D1069C0AE03348C0684005400DF8
:100BA00069464988884201D1059C00E0049C4BE0DD
:100BB0002E4C49E0684600882B4949698905890D12
:100BC000884202D16846C48901E0684684893BE0D6
:100BD0000124E40338E02448C06B8007800F032819
:100BE00029D1684600892049C9684905490D8842CC
:100BF00001D1089C20E06846C0881B49C9684905A6
:100C0000490D884201D1079C16E068468088164944
:100C1000C9684905490D884201D1069C0CE0684627
:100C200040881149C9684905490D884201D1059C90
:100C300002E0049C00E00D4C0B48C06BC005000FA7
:100C4000444301E0002400BF00BF0748006840059E
:100C5000410F2046C8400446204609B030BD000080
:100C600034370000000C1000002000400048E8016C
:100C700010B5044600F060F9064800680721090233
:100C800088432102072212021140084301490860EB
:100C9000002010BD0020004010B5044600F04CF9C3
:100CA000064800680321C9028843E1020322D202F8
:100CB0001140084301490860002010BD0020004099
:100CC0001EB50146002200200090019002903D4890
:100CD0000388684603813B4843886846C380394897
:100CE0008388684683803748C3886846438088780D
:100CF00003282DD168460089334BDB685B055B0D0B
:100D0000984202D1C878022820DC6846C0882E4B61
:100D1000DB685B055B0D984202D1C878022815DCC0
:100D200068468088284BDB685B055B0D984202D1E2
:100D3000C87803280ADC68464088234BDB685B05DB
:100D40005B0D98420CD1C878062809DD06201EBD2F
:100D5000C8781E4B58431E4B984201D90620F6E72F
:100D60001948C06B03235B0398430B785B03032490
:100D7000640323401843144BD8631846C06B1C23EC
:100D800098434B789B001C24234018430E4BD86398
:100D90001846C06BFF23E1339843CB785B01FF24F7
:100DA000E13423401843084BD8631846C06B8008D1
:100DB00080008B789B079B0F1843034BD86310462A
:100DC000C5E70000000C1000002000400048E801CA
:100DD000006CDC0201464A00064BD218128850050E
:100DE000400D054AD268D20AD2020243024BDA60B1
:100DF00000207047000C10000020004070B5044631
:100E00000025264600F098F806480068E02188434F
:100E10007101E022114008430249086000F004F823
:100E2000284670BD00200040014802490860704714
:100E300000093D006000002000B5FFF7F5FF00BD90
:100E400010B5C046C04610BD10B5C046C04610BD66
:100E500010B5C046C04610BD10B5C046C04610BD56
:100E600010B5C046C04610BD10B5C046C04610BD46
:100E700010B5C046C04610BD10B5C046C046C046FD
:100E8000C04610BD10B5C046C046C046C04610BDE5
:100E900010B5C046C04610BD10B5C046C046C046DD
:100EA000C04610BD10B5C046C04610BD10B5124CAE
:100EB00001202061606111A0A0611349E16101215D
:100EC000890221620021A1626162E1620BA02063BC
:100ED0000E4961631021A16300212164E163616413
:100EE0000BA1E01DFFF7A7F90AA12046FFF7A3F920
:100EF0002020A07110BD00007C5300205465726D4D
:100F0000696E616C00000000C4530020C4570020CB
:100F100052545400534547474552000010B501460E
:100F20000A69CB689A4204D88C68641EE41AA01837
:100F300001E0D41A601E10BD0248034988600348CE
:100F4000886070475A5A000000200040A5A50000A4
:100F5000F7B584B00446174600200390E56800BF4B
:100F6000206902900298A84203D90298401B461EAD
:100F700004E0A1680298281A401C0E1AA068401BC1
:100F8000B04201D9304601E0A068401B0646BE428F
:100F900001D2304600E038460646606840190190AC
:100FA000324605990198FFF707F9039880190390D5
:100FB000059880190590BF1BAD19A068A84200D103
:100FC0000025E560002FCBD1039807B0F0BDF7B541
:100FD00082B004461546E668A068871BAF420AD96E
:100FE0006068801900902A4603990098FFF7E4F89A
:100FF0007019E06014E00197606880190090019A10
:1010000003990098FFF7D8F8E81B019060680090FA
:101010000398C119019A0098FFF7CEF80198E06093
:1010200005B0F0BD0FB47CB50C0009AD01D0611E58
:1010300000E0002101910090074B6A46294608987C
:1010400000F012F9002C02D0009A002111707CBC33
:1010500008BC04B018470000A51900007CB51D4667
:1010600016460C0001D0611E00E0002101910090A5
:10107000054B6A462946304600F0F6F8002C02D0AF
:10108000009A002111707CBDA51900002021020CDE
:1010900001D010211046020A01D010460839020979
:1010A00001D01046091F820801D01046891E42084F
:1010B00001D0881E7047081A704730B47446641E09
:1010C0002578641CAB4204D3635D5B00E31830BC3D
:1010D00018471D46F8E702E008C8121F08C1002A99
:1010E000FAD170477047002001E001C1121F002AA9
:1010F000FBD17047F0B51FB486B00998089A030D6C
:101100000021024314D05148514A18185043051485
:101110001198012810981AD0281A401C00264D4F0B
:101120004D49009601910490002812DA444211E0E2
:101130001198012449A3012801D11098C1430698B0
:10114000119A84600360C26041600BB0F0BD404200
:10115000E4E70446210500203F4A001C5141039169
:10116000029012E0E00707D032463B460199009812
:10117000FFF75EF90191009032463B461046194652
:10118000FFF756F906460F466410002CEAD1049882
:10119000039B0028029A0999089806DAFFF748F994
:1011A000019B009AFFF744F905E0FFF7A9F9019BBD
:1011B000009AFFF7A5F904460E460022284BFFF7D8
:1011C00037FA03D80020C043014607E00022254B30
:1011D00020463146FFF778F8FFF70AFA102409E0B5
:1011E000002C0ADB0A220023FFF73DF8079B303270
:1011F0001A55641E02460A43F2D11122641C079B51
:10120000121B1C19119B012B03D0012308430ED183
:101210000AE0084304D0112010900020119077E7D5
:101220001098151A6D1E0BE01098824202DD002303
:101230006D1C03E0824201DA00236D1E002BEED00C
:10124000069811998260C16030C07EE701FCFFFF03
:10125000104D0000000014400000F03F300000007E
:101260000000F0430000E03FFFB597B006460025C0
:101270001BE2252876D100242746F749049400E094
:101280000443761C32780120203A90400842F7D17E
:1012900030782A280ED002223078014630390929C8
:1012A00016D804990A235943303940181443761C40
:1012B0000490F1E7189802C804911890002904DA04
:1012C0000120400304434842049002200443761C5A
:1012D00030782E2814D1042004437078761C2A28F4
:1012E00009D11898761C80C8189009E00A214F434C
:1012F000303FC719761C3078014630390929F5D9B5
:1013000030786C2810D006DC4C281AD068280ED013
:101310006A2817D104E0742813D07A2812D110E07B
:101320000120400504430CE00121090501E00321EF
:1013300009050C437178814203D10120000524186E
:10134000761C761C307866280BD013DC58287DD0AC
:1013500009DC00287BD04528F6D04628F4D0472861
:101360001AD1A9E118E0632835D0642870D0652827
:1013700012D1A1E170286CD008DC6728F1D069286F
:101380007DD06E280DD06F2806D1BCE073282ED0FA
:10139000752873D0782859D01A9A199990476D1CDE
:1013A00082E16002400F022809D003280DD00428F2
:1013B000189801680DD00D60001D189074E1189800
:1013C000EA1701680D604A60F6E7189801680D8019
:1013D000F2E70D70F0E718986A4601781172001D67
:1013E00018900020507202A80090012005E0189883
:1013F00002C8189000200091C04361070ED500215B
:1014000001E00199491C0191B94213DA8142F8DBEC
:10141000019A0099895C0029F3D10BE0002101E0D9
:101420000199491C01918142FADB019A0099895C7A
:101430000029F5D1019904981A9B471A214638468C
:10144000199A00F099FA4019019903E051E030E14E
:1014500015E050E0451807E0009800990078491C15
:1014600000911A9A199990470198401E0190401CCA
:10147000F2D1214638461A9B199A12E137E00A2028
:101480000021009001916002410F022907D0189AB3
:1014900001CA1892C2179446032908D00AE0189886
:1014A000C01DC108C90005C91891944607E000B2E3
:1014B000C2179446042902D140B2C1178C460022BB
:1014C0006146944506DA0A460021404291418C4625
:1014D0002D2102E0210504D52B216A46117301213B
:1014E00003E0E10701D02021F7E7029156E00A204E
:1014F0000AE0102008E0102000900021042004439E
:101500000191082703E0082000210191009060026A
:10151000410F022907D0189A01CA18920022944656
:10152000032908D008E01898C01DC108C90005C9E2
:101530001891944603E080B2042900D1C0B2002182
:10154000029121072AD531780D91702906D0009A91
:101550001021019B4A401A4305D00EE040216A4603
:101560001173012108E06146014306D030216A462B
:1015700011730D99517302210291009A0821019B68
:101580004A401A430AD16146014301D1610705D59A
:1015900030216A46117301217F1E0291317858294A
:1015A00004D02EA10E910DA90D910DE030A1F9E707
:1015B0006146019B009AFEF756FE0E9B8C469B5C93
:1015C0000D9A521E0D92137061460143F0D10D9891
:1015D00005A9081A20300190600703D501200004F6
:1015E000844300E001270198874201DD381A00E0BA
:1015F0000020019900904118029809180498401A97
:101600000490E00306D421461A9B199A049800F02E
:10161000B3F94519002706E003A81A9AC05D199985
:1016200090476D1C7F1C02988742F5DBE0030CD5C8
:1016300021461A9B199A049800F09EF9451904E076
:101640001A9A3020199990476D1C0099481E0090F5
:101650000029F5DC1FE00000092801003031323399
:1016600034353637383961626364656600000000DE
:1016700030313233343536373839414243444546C8
:10168000000000000D980D990078491C0D911A9AE0
:10169000199990476D1C0199481E01900029F1DCB1
:1016A0004DE100F059F94519761C3078002800D03A
:1016B000DFE528461BB0F0BD600700D40627189868
:1016C000C01DC108C90048680A680831C30FDB079C
:1016D0001891190001D09CA108E0210501D59BA11A
:1016E00004E0E10701D09AA100E09AA14300109123
:1016F00030785B0865280CD006DC452809D04628E0
:101700001DD0472841D141E0662818D067283CD138
:101710003CE00021112F01DB112000E0781C019139
:10172000009008A911A8FFF7E5FC13990591002185
:10173000119A15927F1C12980197009150E0012098
:10174000C00703900120019008A9009711A8FFF796
:10175000D1FC139A149905920022119B00921298C1
:101760001593059A0192002901D0104602E0791CD8
:1017700040180190381A01D5019804E04042401EFB
:101780000090781C0190C01B029043E0012F00DA0A
:1017900001270021112F01DD112000E038460191C1
:1017A000009008A911A8FFF7A5FC13990591119ABB
:1017B0000021129815920091019721070CD40599E8
:1017C000B94201DB019900E00191012904DD159A7C
:1017D000491E515C302906D0B84201DA011D05DAF4
:1017E0000121029115E00199491EEDE7002805DC71
:1017F0000099411800910199091A03E0019A411CCE
:10180000914200DD01910099401A401C0290012094
:10181000C0070390200706D402990198814202DB99
:101820000020C043029000206946C87707AF01211D
:1018300003980337C907884224D0022011902B2037
:101840001290039800280CDA404203902D20129049
:1018500007E00A210398FEF799FC30317F1E0390C0
:1018600039701199481E11900029F2DC0398002864
:10187000EFD1791E12980870307820210840453049
:10188000BF1E387006A8C01BC01D039010980078BA
:10189000002800D00120019941180298C0170918AA
:1018A000039809180498401A401E0490E00306D4D7
:1018B00021461A9B199A049800F05EF84519109871
:1018C0000078002803D01A9A199990476D1CE003FC
:1018D00024D521461A9B199A049800F04DF8451911
:1018E0001CE00098002807DB00990598884203DD7A
:1018F0001598405C199901E0199930201A9A90477F
:1019000000986D1C401C00900298401E0290002818
:1019100004D11A9A2E20199990476D1C0199481EDE
:1019200001900029DDDC05E038781A9A7F1C1999AE
:1019300090476D1C0399481E03900029F4DC214652
:101940001A9B199A0498ACE62D0000002B000000A9
:101950002000000000000000F8B5044600251E46E7
:101960001746880404D405E039462020B0476D1C92
:10197000641EF9D52846F8BDFFB50446002581B0A0
:101980001E46C80301D5302700E02027880404D56F
:1019900005E038460399B0476D1C641EF9D528460A
:1019A00005B0F0BD4A68002A06D00A68531C0B60D7
:1019B00010704868401E48607047000008B500205D
:1019C000FFF708FA01210020FEF7E2FF0120FEF7F1
:1019D000FDFE0421684600F01FF8032168460170EF
:1019E00004214170032181700221C170FFF768F961
:1019F00001210420FEF7CCFF0420FFF7FFF90020AF
:101A0000FFF736F90020FFF747F9FFF777F80149AC
:101A1000086008BD6000002010B50A460146002994
:101A200000D110BD02E000230B70491C1346521E6A
:101A3000002BF8D100BFF4E770B5054611481249F4
:101A4000486100208861052008610FE000200E49F0
:101A500088610E490E480068FEF798FB01210906CF
:101A60000C1A00BF08488069A042FBD828466D1EAA
:101A70000028EBD104480069400840000249086191
:101A800070BD0000FFFFFF0000E000E0A086010045
:101A90006000002070B586B00646002E1CD1274895
:101AA0000068002811D1FF20F630254925A22AA37D
:101AB000049001930292039100900B462FA239A14A
:101AC000002000F0B7F800BFFEE7FF22F6321C4905
:101AD0001CA01A4B1B689847002405253348007C3E
:101AE000002802D1284606B070BD00F0C3FA0024D9
:101AF0001CE0600121182D48AF380818203000780C
:101B0000012811D1600122182848AF381018411C53
:101B10001E223046FEF798FB002805D160012118EF
:101B20002248AF38455C03E0601CC4B2052CE0DB02
:101B300000BF00F0D1FA2846D5E70000940000204D
:101B4000DE37000074616720213D202828766F6908
:101B500064202A2930290000282573292068617310
:101B600020617373657274206661696C65642061BD
:101B7000742025733A256C642E0000002E2E5C4DD7
:101B80006964646C6577617265735C456173794CF7
:101B90006F676765725C7372635C656C6F672E63F9
:101BA00000000000656C6F6700000000B458002062
:101BB00010B500241E48007C012801D1204610BD2C
:101BC00000F0A8FA0446002C01D02046F7E70120D7
:101BD00000F062FA00211648C1740175012000F07E
:101BE000FFFB052000F0A8FA00F00AFB01211048D5
:101BF0000174012000F0F4FBFF21002000F01EFB27
:101C0000E321012000F01AFB0321022000F016FB63
:101C10000321084600F012FBE321042000F00EFB34
:101C2000FF21052000F00AFB00F046FC2046C6E735
:101C3000B45800200FB4F0B58FB005460F463846B3
:101C4000FEF7F2FA0E90002402200D9000200B9077
:101C50000C900790089009900A90052D1ADDD7483E
:101C60000068002810D1D648D649D7A2DDA3049039
:101C700001930292039100900B46E3A2ECA1002095
:101C8000FFF7D8FF00BFFEE7CD4ACE49CEA0CB4B31
:101C90001B689847E848407C002804D10FB0F0BC8E
:101CA00008BC04B01847E448E0380078A84204DBD8
:101CB0003846FFF7EFFEA84200DAEFE7DE49DF39EA
:101CC0003846FEF79DFA002800D1E7E71AA80690EB
:101CD00000F0D0F9D848407D00280FD0D74801192E
:101CE000D7A2204600F034FC0419A800D54B1A589E
:101CF000D2480119204600F02BFC04190121284686
:101D000000F0AEFC002808D0A800CF4B1A58CB48F2
:101D10000119204600F01CFC04190221284600F09D
:101D20009FFC00281ED0C54801193A46204600F005
:101D30000FFC04190E980F280DD80F220E98111AB7
:101D4000202207A8FEF74AFABC48011907AA204634
:101D500000F0FEFB0419B9480119BCA2204600F0AE
:101D6000F7FB04191C21284600F07AFC002857D004
:101D7000B2480119B6A2204600F0EAFB041904217A
:101D8000284600F06DFC002816D000F0BFF9059041
:101D9000AA4801192046059A00F0DAFB0419182117
:101DA000284600F05DFC002806D0A4480119A7A22F
:101DB000204600F0CDFB04190821284600F050FC15
:101DC000002816D000F09AF905909C480119204689
:101DD000059A00F0BDFB04191021284600F040FCD4
:101DE000002806D09548011998A2204600F0B0FBC3
:101DF00004191021284600F033FC002809D000F017
:101E000081F905908D4801192046059A00F0A0FB44
:101E100004198A4801198FA2204600F099FB041981
:101E200020212846169A00F087FC00280DD1402179
:101E30002846179A00F080FC002806D18021284609
:101E4000189A00F089FC002868D07C48011982A209
:101E5000204600F07DFB041920212846169A00F048
:101E60006BFC002823D0754801192046169A00F013
:101E70006FFB041940212846179A00F05DFC0028EA
:101E800007D06E48011975A2204600F061FB0419C5
:101E90000DE080212846189A00F05EFC002806D04C
:101EA0006648011969A2204600F052FB04198021FE
:101EB0002846189A00F050FC00281AD068A2052184
:101EC0000BA8189BFFF7AEF85C4801190BAA204637
:101ED00000F03EFB041940212846179A00F02CFC24
:101EE000002806D05548011958A2204600F030FBC2
:101EF000041940212846179A00F01EFC002806D03D
:101F00004E4801192046179A00F022FB04194B484D
:101F1000011954A2204600F01BFB04190120800285
:101F2000011B464800190590069B199AFFF796F881
:101F3000064600200690A01901218902884203D894
:101F4000002E01DBA41901E00124A402201D0D993B
:101F5000401801218902884203D90C46241F0D989C
:101F6000241A3548C038007800280CD000203349A6
:101F700008553149C0393148FEF742F9002802D1ED
:101F800000F0AAF88AE62C48407D002806D02B48AD
:101F9000011935A2204600F0DBFA0419274801197F
:101FA00033A2204600F0D4FA04192146234800F059
:101FB000B7F800F091F800BF70E600009400002030
:101FC00053020000F63700006C6576656C203C3DDE
:101FD00020454C4F475F4C564C5F564552424F533D
:101FE0004500000028257329206861732061737300
:101FF000657274206661696C656420617420257364
:102000003A256C642E0000002E2E5C4D6964646CD1
:102010006577617265735C456173794C6F6767655D
:10202000725C7372635C656C6F672E630000000006
:10203000656C6F6700000000B4580020CC58002089
:102040001B5B00007C0000206400002020000000DA
:102050005B0000005D200000280000003A00000046
:10206000256C6400290000001B5B306D000000003F
:102070000D0A000010B50748807C002805D000F04C
:1020800058F801210348017502E001210148C1749B
:1020900010BD0000B458002010B504460D488474EB
:1020A000807C002814D00B48007D002806D1094808
:1020B000C07C002802D000F03CF809E00548007D13
:1020C000002805D00348C07C002801D100F032F878
:1020D00010BD0000B458002010B50748807C0028CF
:1020E00005D000F027F800210348017502E0002127
:1020F0000148C17410BD0000B458002000A0704712
:102100002000000000A070472000000000A07047E1
:102110002000000010B50024FEF7BCFB204610BDD7
:1021200070B504460D462A4621460020FEF7B6FB50
:1021300070BD70477047000010B586B00446052C8E
:102140001CDD10480068002811D1FF2070300E49B6
:102150000EA215A3049001930292039100900B46E6
:102160001AA224A10020FFF765FD00BFFEE7FF22B1
:102170007032054905A0034B1B6898471F4804703F
:1021800006B010BD94000020B23700006C65766583
:102190006C203C3D20454C4F475F4C564C5F5645AC
:1021A00052424F534500000028257329206861736F
:1021B00020617373657274206661696C6564206167
:1021C000742025733A256C642E0000002E2E5C4D81
:1021D0006964646C6577617265735C456173794CA1
:1021E0006F676765725C7372635C656C6F672E63A3
:1021F00000000000656C6F6700000000D4570020ED
:1022000010B5002400BF14E0610162180A4951189A
:10221000481C1F21FDF7E9FF002160012218064834
:102220008154600122180448101820300170601C8D
:10223000C4B2052CE8DB10BD0558002030B585B0D0
:1022400004460D46052C1CDD10480068002811D1FD
:10225000FF2056300E490FA215A30490019302925D
:10226000039100900B461BA224A10020FFF7E2FC83
:1022700000BFFEE7FF225632054906A0034B1B684C
:102280009847A1001F48455005B030BD940000207C
:10229000953700006C6576656C203C3D20454C4FC1
:1022A000475F4C564C5F564552424F534500000025
:1022B0002825732920686173206173736572742007
:1022C0006661696C65642061742025733A256C64CD
:1022D0002E0000002E2E5C4D6964646C657761727F
:1022E00065735C456173794C6F676765725C737287
:1022F000635C656C6F672E6300000000656C6F6740
:1023000000000000AC58002010B586B00446002C38
:102310001ED0012C1CD010480068002811D1FF20CD
:102320002B300E490EA218A3049001930292039140
:1023300000900B461DA227A10020FFF77BFC00BFE9
:10234000FEE7FF222B32054905A0034B1B68984787
:102350002248447406B010BD94000020613700008C
:1023600028656E61626C6564203D3D2066616C731A
:102370006529207C7C2028656E61626C6564203D47
:102380003D207472756529002825732920686173C2
:1023900020617373657274206661696C6564206185
:1023A000742025733A256C642E0000002E2E5C4D9F
:1023B0006964646C6577617265735C456173794CBF
:1023C0006F676765725C7372635C656C6F672E63C1
:1023D00000000000656C6F6700000000B45800202A
:1023E00010B586B00446002C1ED0012C1CD010481D
:1023F0000068002811D1FF2037300E490EA218A323
:10240000049001930292039100900B461DA227A114
:102410000020FFF70FFC00BFFEE7FF22373205491F
:1024200005A0034B1B6898472248447506B010BDB1
:10243000940000207937000028656E61626C656445
:10244000203D3D2066616C736529207C7C202865D9
:102450006E61626C6564203D3D2074727565290073
:102460002825732920686173206173736572742055
:102470006661696C65642061742025733A256C641B
:102480002E0000002E2E5C4D6964646C65776172CD
:1024900065735C456173794C6F676765725C7372D5
:1024A000635C656C6F672E6300000000656C6F678E
:1024B00000000000B45800200EB50B48007C002836
:1024C00000D10EBD0120FFF71FFF08A009A1FF22C8
:1024D0000C32124B00920191029011A21AA103201A
:1024E000FFF7A8FB00BFECE7B4580020322E322ED5
:1024F00039390000456173794C6F67676572205602
:10250000257320697320696E697469616C697A65E5
:1025100020737563636573732E0000004C370000F1
:102520002E2E5C4D6964646C6577617265735C45E1
:102530006173794C6F676765725C7372635C656C1D
:102540006F672E6300000000656C6F67000000007D
:10255000F0B585B006460D4614462746002D1AD123
:1025600025480068002810D12C20244924A225A346
:10257000049001930292039100900B462AA235A188
:102580000020FFF757FB00BFFEE72C221B491CA0D1
:10259000194B1B689847002C1AD11748006800286F
:1025A00010D12D2015492DA216A30490019302925B
:1025B000039100900B461CA226A10020FFF73AFBD6
:1025C00000BFFEE72D220D4924A00B4B1B68984746
:1025D0000BE03046761C01218902884204D2207823
:1025E0002870641C6D1C00E002E020780028F0D107
:1025F00000BFE01B05B0F0BD940000202E380000A5
:1026000064737400282573292068617320617373D3
:10261000657274206661696C65642061742025733D
:102620003A256C642E0000002E2E5C4D6964646CAB
:102630006577617265735C456173794C6F67676537
:10264000725C7372635C656C6F675F7574696C73E1
:102650002E630000656C6F670000000073726300FA
:1026600030B585B004460D46052C1CDD13480068C6
:10267000002811D1BD208000114912A218A3049096
:1026800001930292039100900B461EA227A1002005
:10269000FFF7D0FA00BFFEE7BD229200084909A06B
:1026A000064B1B689847A100224840582840002844
:1026B00002D0012005B030BD0020FBE794000020CF
:1026C000023800006C6576656C203C3D20454C4F1F
:1026D000475F4C564C5F564552424F5345000000F1
:1026E00028257329206861732061737365727420D3
:1026F0006661696C65642061742025733A256C6499
:102700002E0000002E2E5C4D6964646C657761724A
:1027100065735C456173794C6F676765725C737252
:10272000635C656C6F672E6300000000656C6F670B
:1027300000000000AC58002070B505460E46144657
:10274000002C07D031462846FFF78AFF002801D029
:10275000012070BD0020FCE770B505460E4614460A
:10276000002C07D031462846FFF77AFF002801D019
:10277000012070BD0020FCE70EB5FFF71FF9FFF741
:1027800017FA17A044211D4B1DA20091019021A111
:102790000320FFF74FFA2148006821A14522174B7B
:1027A00000920191029016A21AA10420FFF742FAAA
:1027B0000020022103468022009101901DA11F48A4
:1027C00000F0E8FD002002210346802200910190E4
:1027D0001BA11D4800F0DEFD00F034FD00BFFEE748
:1027E000484333324C3139782050524F4A45435494
:1027F0002052554E4E494E47000000002C37000035
:102800002E2E5C436F72655C5372635C6D61696E02
:102810002E6300004E4F5F544147000060000020CF
:1028200053797374656D20636C6F636B3A20257503
:1028300020487A006C6F673173000000A12F000000
:102840006C6F673273000000FD2F0000FEB5054677
:102850000E46244807682448006801902348006811
:10286000009023480068001D00F0F6FB681C00285B
:102870001DD1002E1BD000BF1E4948681C490968A5
:1028800088601B4982680968CA6019490968091D7E
:102890008268516016490968091D8160154A14490A
:1028A00009684A6111460968491C116018E07C19E1
:1028B0000F4800684460BC4206D20D480168091DFB
:1028C000009800F0EDFB0BE009480168091D019834
:1028D00000F0E6FB08480068844201D20648046024
:1028E000FEBD0000140000200400002008000020AD
:1028F00000000020680300203000002010B50446CE
:1029000000F0EAFB31480068401C3049086030485C
:102910000068002808D12E48046008460068012895
:102920000ED100F095F90BE02A480068002807D185
:1029300027480068C06AE16A884201D824480460D8
:1029400025480068401C2449086008460068606407
:1029500000BF00BF2149E06A0968884202D91F49C7
:10296000E06A086000BF00BF1422E16A51431C4ABC
:1029700089184868A0608268E260211D8268516001
:1029800081601422E16A5143154A8A186261142257
:10299000E16A5143124A5158491C1423E26A5A43CE
:1029A0000F4B995000BF00BF00F0A4FB094800681E
:1029B000002809D000BF06480068C06AE16A884262
:1029C00001D200F011FC00BF10BD0000100000207B
:1029D000000000201C0000202C0000201800002017
:1029E0009800002010B516E000F076FB0C48C06897
:1029F000C468201D00F030FB0A480068401E0949E9
:102A0000086009480068401E0749086000F072FB32
:102A1000204600F06DF8044800680028E4D110BD9D
:102A200054030020100000200C000020F0B587B0F7
:102A300001260027002409E013A0005D03A9085522
:102A400003A8005D002800D102E0641C102CF3DB19
:102A500000BF002511E00E4FA8000E4940180021CC
:102A60000B4680220091019003A9384600F092FCA9
:102A70000646002E00D102E06D1C012DEBDB00BFED
:102A8000304607B0F0BD000049444C45000000004E
:102A9000752B000034000020FFB585B016460E9F50
:102AA000B00000F081F90546002D0FD0702000F035
:102AB0007BF90446002C05D070212046FDF795FBDC
:102AC000256304E0284600F02BFB00E00024002CE6
:102AD0000BD000210F980097029403910190324689
:102AE000089B0699059800F051F8204609B0F0BD02
:102AF00010B50446206B00F013FB204600F010FBDD
:102B000010BD000030B505231B0315484407640FB2
:102B1000002C05D0C01DC008C000114C041B1B1B9D
:102B2000104C206000240F4D6C60C218083AD20887
:102B3000D2000D4C226000240B4D2D686C600A4DB4
:102B40002D682C600146541A4C60074C24680C60B8
:102B5000064D4C682C60064D4C682C6030BD000062
:102B60007C030020440000204C0000205400002082
:102B70005000002000BFFFF735FF03480068012820
:102B8000F9D900F031FBF6E798000020FFB581B0DD
:102B90000F460A9E0C9C039A9100A522206BFDF71C
:102BA0001DFB216B0398401E8000081800900098C0
:102BB000C008C000009000BF00984007400F0028E8
:102BC00001D1012000E00020002802D172B600BF30
:102BD000FEE700BF002F10D0002508E0795D2046F9
:102BE00034304155785D002800D102E06D1C102D75
:102BF000F4D300BF00214320015500BF202E01D295
:102C0000012000E00020002802D172B600BFFEE7DC
:102C100000BF202E00D31F26E662E664201D00F0D0
:102C20003CFA2046183000F038FA24612020801B3E
:102C3000A0616462049A0199009800F0A1F92060F3
:102C40000B98002801D00B98046005B0F0BD00007F
:102C500010B5002406E0142161430E4A881800F0E4
:102C60000FFA641C202CF6D30B4800F009FA0B482D
:102C700000F006FA0A4800F003FA0A4800F000FAE9
:102C8000094800F0FDF9044808490860034808496C
:102C9000086010BD98000020180300202C030020BD
:102CA000400300205403002068030020040000209B
:102CB0000800002010B50146204800E000680368C5
:102CC0008B42FBD31D4B98420FD000BF1C4B984248
:102CD00004D31C4B984201D8012300E00023002BB1
:102CE00002D172B600BFFEE700BF024643689B18E0
:102CF0008B4204D143684C681B19436001460A4665
:102D00004B689B180468A34211D10F4C03682468D8
:102D1000A34208D04B68046864681B194B600368C1
:102D20001B680B6005E0084B1B680B6001E0036843
:102D30000B60884200D0016010BD000044000020FC
:102D40007C0300207B5300204C0000200A480068D0
:102D50000068002801D1012000E00020002804D0F4
:102D60000020C0430549086005E003480068C068CA
:102D7000006802490860704704000020300000200D
:102D800000BF08480068401C002801D1012000E075
:102D90000020002802D172B600BFFEE700BF72B665
:102DA00000BFFEE740000020FEB505460020019070
:102DB000002D23D00820C043854201D9012000E026
:102DC0000020002819D108356807400F002815D0C9
:102DD0006807400F0821081A00900021C943009895
:102DE000081AA84201D2012000E00020002802D1E8
:102DF00000982D1802E0002500E0002500F04EFAB2
:102E000058480068002801D1FFF77CFEE817401CF5
:102E100000287DD0002DFCD053480068854277D82B
:102E2000524E3046046800BF5148844204D3514892
:102E3000844201D8012000E00020002802D172B6AF
:102E400000BFFEE700BF11E02646246800BF4848E7
:102E5000844204D34748844201D8012000E0002086
:102E6000002802D172B600BFFEE700BF6068A8422A
:102E700002D220680028E7D13A48006884425DD039
:102E800030680830019000BF39490198884205D365
:102E900038490198884201D8012000E0002000282C
:102EA00002D172B600BFFEE700BF2068306000BFED
:102EB0006068A84201D2012000E0002001214840C2
:102EC000002802D172B600BFFEE700BF6068401B59
:102ED000102815D9671900BF7807400F002801D1C5
:102EE000012000E00020002802D172B600BFFEE7FA
:102EF00000BF6068401B786065603068386037608C
:102F0000194960680968081A17490860084600E00E
:102F100014E0006818490968884203D21248006822
:102F2000154908600121C9076068084360600020F6
:102F3000206012480068401C1049086000F024FB23
:102F400000BF01984007400F002801D1012000E098
:102F50000020002802D172B600BFFEE700BF019832
:102F6000FEBD00004C000020500000204400002066
:102F70007C0300207B5300205400002058000020D8
:102F8000001F01231B060360001F0160001F034B8D
:102F9000036014380260203870470000812D000063
:102FA0001CB500BF07A02C210C4B0DA20091019075
:102FB00010A10420FEF73EFE7D20C00000F020F9A5
:102FC000F0E700007461736B5F6C6F675F31733A99
:102FD000203173207469636B000000001437000017
:102FE0002E2E5C436F72655C5372635C6D61696E1B
:102FF0002E6300004E4F5F54414700001CB500BFD8
:1030000007A037210C4B0DA20091019010A10420C4
:10301000FEF710FE7D20000100F0F2F8F0E700005E
:103020007461736B5F6C6F675F32733A2032732029
:103030007469636B00000000203700002E2E5C4393
:103040006F72655C5372635C6D61696E2E63000024
:103050004E4F5F544147000001460A694B6888683B
:1030600098608B68486858605068884201D18868C9
:103070005060002008611068401E106010687047A2
:103080000146083141600021C94381600146083191
:10309000C16001610021016070470021016170473A
:1030A00010B502460B685C1C002C01D1106907E0CA
:1030B0001046083000E04068446824689C42FAD911
:1030C00044684C604C68A160886041600A61146883
:1030D000641C146010BD000072B605480068401CF6
:1030E00003490860BFF34F8FBFF36F8F7047000035
:1030F0004000002000BF09480068002802D172B6D5
:1031000000BFFEE700BF05480068401E0349086095
:1031100008460068002800D162B6704740000020D1
:1031200070B505462E46002D44D0083E344600BFFB
:103130002148844204D32148844201D8012000E080
:103140000020002802D172B600BFFEE700BF00BF1A
:103150006068C00F002802D172B600BFFEE700BF52
:1031600000BF2068002801D1012000E000200028D5
:1031700002D172B600BFFEE700BF6068C00F002832
:1031800018D02068002815D16068400040086060B1
:1031900000F084F80A496068096840180849086026
:1031A0002046FFF787FD07480068401C0549086076
:1031B00000F0EAF970BD00007C0300207B53002082
:1031C000500000205C0000207047000000200449EF
:1031D0000861886103484861072008617047000062
:1031E00000E000E07FBB00000120000703494860C9
:1031F000BFF34F8FBFF36F8F7047000000ED00E00B
:1032000070B504460025002C15D000F047F800BF2B
:103210000B480068012800D100E00020002802D1FE
:1032200072B600BFFEE700BF00212046FFF70EFB8D
:1032300000F0AAF90546002D01D1FFF7D5FF70BDBA
:103240003C00002010B5FFF7F1FB0446012C0DD126
:1032500072B60020C0430D49086001200C49086087
:1032600000200C49086000F067F80CE000BF601C0B
:10327000002801D0012000E00020002802D172B611
:1032800000BFFEE700BF0448006810BD300000200A
:103290001C000020140000203800002002480068B4
:1032A000401C0149086070473C0000201D48006830
:1032B000002803D001201C49086032E000201A4990
:1032C000086000BF1948016807E000BF002902D16B
:1032D00072B600BFFEE700BF491E14204843144ADF
:1032E0001058002801D1012000E000200028ECD176
:1032F00000BF14224A430E4BD01842685268426005
:10330000024608324368934201D1C2684260426873
:10331000D268084B1A6000BF0448016000BF18461D
:10332000006870473C0000202400002018000020A6
:10333000980000200000002010B50B48006AFF2113
:1033400009040843084908620846006AFF21090683
:10335000084305490862FFF739FF00200349086068
:10336000FCF7BAFE002010BD00ED00E04000002098
:1033700010B5FCF7C5FE044600F026F8002803D07F
:1033800001200007024948602046FCF7BDFE10BD41
:1033900000ED00E0FFB583B006460C9F0D98009746
:1033A0000190304604A90EC9FFF776FB0546002DB3
:1033B00004D02846FFF7A2FA012401E00024E443E8
:1033C000204607B0F0BD0000F8B50020009063482B
:1033D000006800287ED162480068451C604805608E
:1033E000002D1FD100BF00BF5E48006800680028A4
:1033F00001D1012000E00020002802D172B600BFF8
:10340000FEE700BF574807685748006855490860FD
:103410005548076055480068401C54490860FFF74C
:1034200095FC00BF5248006885427ED300BF4D48DE
:1034300000680068002801D1012000E00020002879
:1034400004D00020C0434A4908606DE04548006848
:10345000C068C4686668B54202D24548066063E049
:1034600000BF6069E268A1688A60A268E1684A609A
:10347000211D42688A4201D1E168416000226261F7
:103480000168491E016000BFA06A002814D000BF77
:10349000A06A226AE1698A60E269216A4A6021467B
:1034A000183142688A4201D1216A41600022A26239
:1034B0000168491E016000BF00BF00BF2D49E06ADE
:1034C0000968884202D92B49E06A086000BF00BF42
:1034D000142200E03BE0E16A5143274A891848681A
:1034E000A0608268E260211D8268516081601422C0
:1034F000E16A5143204A8A1862611422E16A514309
:103500001D4A5158491C1423E26A5A431A4B9950D8
:1035100000BF00BF1949E06A0968C96A884286D9B4
:103520000120009083E700E000BF14480068C06AF3
:103530001421484310490858012801D9012000905E
:103540000F480068002801D00120009004E00D48D9
:103550000068401C0B4908600098F8BD3C00002042
:103560001400002004000020080000202800002093
:1035700030000020180000209800002000000020EB
:103580002400002020000020F8B500240026FFF7CA
:10359000A3FD002500BF57480068002801D0012086
:1035A00000E00020002802D172B600BFFEE700BF95
:1035B00050480068401E4F490860084600680028CF
:1035C0007ED14D48006800287AD061E04B48C06841
:1035D000C46800BFA06A226AE1698A60E269216A60
:1035E0004A602146183142688A4201D1216A41600D
:1035F0000022A2620168491E016000BF00BF60692D
:10360000E268A1688A60A268E1684A60211D426898
:103610008A4201D1E1684160002262610168491E6D
:10362000016000BF00BF00BF3549E06A09688842F9
:1036300002D93349E06A086000BF00BF1422E16A82
:103640005143304A89184868A0608268E260211DB1
:103650008268516081601422E16A5143294A8A18C4
:1036600062611422E16A5143264A5158491C1423CD
:10367000E26A5A43234B995000BF00BF2249E06AD7
:103680000968C96A884203D90120A9001F4A50501D
:103690001A480068002801D1012000E0002000281D
:1036A00094D0002C01D0FFF751FB19480768002F78
:1036B00010D000BFFFF788FE002805D0012000E0F1
:1036C00014E0A900114A50507F1E002FF2D10020B3
:1036D0000F490860A8000D490858002806D00126A7
:1036E00000BF09480068FFF77FFD00BFFFF702FD3C
:1036F0003046F8BD3C0000201000002040030020B0
:103700001800002098000020000000202400002065
:10371000200000207461736B5F6C6F675F31730012
:103720007461736B5F6C6F675F3273006D61696E9C
:103730000000000000093D0000127A000024F4009F
:103740004086510100366E0100800096656C6F67FF
:103750005F737461727400656C6F675F73746F7010
:1037600000656C6F675F7365745F6F7574707574F7
:103770005F656E61626C656400656C6F675F736541
:10378000745F746578745F636F6C6F725F656E6190
:10379000626C656400656C6F675F7365745F666D0E
:1037A0007400656C6F675F7365745F66696C7465E0
:1037B0007200656C6F675F7365745F66696C7465D2
:1037C000725F6C766C00656C6F675F7365745F66C3
:1037D000696C7465725F7461675F6C766C00656CB0
:1037E0006F675F6765745F66696C7465725F74614B
:1037F000675F6C766C00656C6F675F6F7574707572
:1038000074006765745F666D745F656E61626C6598
:103810006400656C6F675F66696E645F6C766C00F0
:10382000656C6F675F66696E645F74616700656C85
:103830006F675F73747263707900656C6F675F6345
:1038400070796C6E00656C6F675F6D656D63707924
:1038500000000000412F0000442F0000452F000011
:10386000492F0000562F0000572F000033313B3105
:103870006D00000033323B316D00000033333B31CB
:103880006D00000033343B316D00000033353B31B7
:103890006D00000033363B316D000000BC38000085
:1038A0000000002098000000D610000054390000ED
:1038B00098000020385E0000E610000000000000C4
:1038C00000000000000000000000000000000000F8
:1038D00000000000000000000000000000000000E8
:1038E00000000000000000000000000000000000D8
:1038F000000000001F00000000000000AAAAAAAA01
:1039000000000000000000000000000000000000B7
:1039100000000000000000000000000000000000A7
:10392000543800005C38000068380000603800003F
:1039300058380000643800008C3800006C380000F3
:103940007C3800009438000074380000843800008F
:043950000000000073
:04000005000000C136
:00000001FF
