:020000040000FA
:1000000078630020510100006B010000E50800004A
:1000100000000000000000000000000000000000E0
:10002000000000000000000000000000750A000051
:10003000000000000000000069090000F70A00004D
:100040004109000049090000510900005D09000054
:10005000B507000021100000411000004D10000005
:100060001909000021090000650A00006D0A00005E
:10007000F5080000FD080000091000001110000044
:10008000191000000D0900002910000031100000B7
:1000900039100000310900006D10000071090000E6
:1000A000A10700003909000059100000611000008C
:1000B0002909000005090000BD070000AD07000088
:1000C0000448854600F0E8FA00480047095000005F
:1000D000C046C04678630020084B19680868203085
:1000E00080F30988022080F31488BFF36F8F3FBC30
:1000F000AE4608BC04BC62B61847000010000020E1
:10010000EFF3108072B6704780F310887047EFF3FA
:1001100009800E4B1A6820381060F0C044464D46E6
:1001200056465F46F0C008B572B605F093FC62B65D
:100130000CBC116808681030F0C8A046A946B24649
:10014000BB4680F309882038F0C81847100000200B
:1001500009480A4A002100A1814200D90244084806
:1001600002600848804708480047FEE7FEE7FEE7D0
:10017000FEE7FEE7FEE700000000002000000000B0
:1001800008ED00E001100000C100000030B50B4692
:10019000014600202022012409E00D46D5409D4261
:1001A00005D31D469540491B2546954040191546E7
:1001B000521E002DF1DC30BDF0B51FB40646002004
:1001C00082B005464024019100901BE0019922462F
:1001D0000F46304600F087F8049A059B801A994133
:1001E00010D310461946224600F06DF8361A8F419A
:1001F0000197224601200021009F00F064F8381882
:100200004D4100902046641E0028DFDC019B0098D1
:100210002946324607B0F0BD03460B439B0703D087
:1002200009E008C9121F08C0042AFAD203E00B78BB
:100230000370401C491C521EF9D27047D2B201E033
:100240000270401C491EFBD270470022F6E710B531
:1002500013460A4604461946FFF7F0FF204610BD34
:1002600030B505462A460B4610781C78521C5B1C9C
:10027000002801D0A042F7D0002C03D0002802D0E3
:100280006D1CEFE7284630BD421C0178401C002958
:10029000FBD1801A704703460A780270401C491C43
:1002A000002AF9D11846704730B5054600200346AC
:1002B00000E05B1C934205D2EC5CC85C201A01D1C3
:1002C000002CF6D130BD10B5202A04DB0146203ABF
:1002D0009140002010BD914020239C1A0346E3402A
:1002E0001943904010BD10B5202A04DB0846203A7F
:1002F000D040002110BD0B46D340D0402024A21A8C
:1003000091400843194610BDF0B5074608465840CD
:1003100087B0C00F049048000E46590040084908B5
:10032000BC1A884105D2384631461E4617460B4650
:1003300002465800400810434DD0300D0390400550
:100340005900400D490D0590401A0290402873DA7B
:1003500018030121000B090508430190049800923D
:10036000002806D01146019A494200209041009190
:100370000190029840210A1A01990098FFF7A3FF03
:1003800005460C466B4607CB00F098F9C019714141
:10039000039A0E0D0023D71756401A467A4016438B
:1003A00044D0049A002A2DD0029A012A039A15DC1F
:1003B0001205C01A914101263605001C7141D20F69
:1003C000059ED2070093019202962A46234600F02A
:1003D00095F907B0F0BD38463146FAE71605234ACD
:1003E0000F46B218C01AB74101210905001C4F4140
:1003F00000187F41114618187941E20F10436D191A
:10040000644113E0E2076D0815436408C207144312
:10041000039A01261205C01A91413605001C71414C
:10042000CE07400830434908C01851412A462346A8
:1004300000F057F9CDE7FFE7049801224000C1170B
:10044000121A00238B4104983146C417381AA1416F
:10045000EEE730B40124E407634030BC54E730B425
:100460000124E407614030BC4EE700000000E0FFDB
:10047000F0B51FB488B00B99099800244840099939
:10048000C00F490049080991C0070B990090490025
:1004900049080B9109990898A64608431CD00B9966
:1004A0000A98084318D0099801244000420D4800DA
:1004B000410D099824050003000B204309900B9877
:1004C0000003000B20430B9050181C4940180022D9
:1004D00001901446104605E0002001460DB0F0BD25
:1004E000032801DA034600E003239C46C11A0AAE42
:1004F0000AE05F0008ADED5B4F00F75B7D4300272E
:10050000AA187C41491C5B1E6145F2DD410004AB29
:100510005A522104120C0A43240C401C0828DFDB29
:10052000019802900099704601910090059B049AF1
:100530000799069800F0E2F8D0E700000DFCFFFFF5
:10054000F0B50C465C4085B0E40FE40703944C0022
:100550000026640859009446490802460296224340
:1005600021D062460A431ED06200570D4A000E0396
:100570002303550D012402462C492405781B1B0B2F
:10058000360B401823432643614600901C46501A00
:10059000B44103D30098401C009002E092180098E8
:1005A0005B41002803DA0020014605B0F0BD0020C1
:1005B000012109050746864611E064461D46141BC5
:1005C000B54106D36546521BB341744607430C43FD
:1005D000A646CD0740084908284392185B410546C6
:1005E0000D43EAD11046184313D0604619465040D7
:1005F0007140084306D06046101AB34106D201226A
:10060000002306E000220123DB0702E00122D2439F
:100610005310009874460105381C6141029C039DEB
:100620000019694100F05DF8BFE70000FD0300001C
:100630004A0009030123090B1B0519430A4B10B596
:10064000520D9A4202DA0020014610BD064B3433A7
:100650009A4203DC9A1AFFF746FE10BD034BD218EC
:10066000FFF731FE10BD0000FF030000CDFBFFFFD0
:1006700010B5002904DB0124E40740428C412146E7
:10068000002B04DB1C460123DB075242A3419942A5
:1006900000D1904210BD0000064C0125064E05E039
:1006A000E36807CC2B430C3C98471034B442F7D393
:1006B000FFF70AFDCC740000EC74000010B5202A8E
:1006C00006DBCB170846203A1041C1170B4306E062
:1006D0000B461341D0402024A21A914008431946EA
:1006E00010BD10B5002B08DA0024401C614192189F
:1006F0005B411A4301D14008400010BDF0B51FB462
:1007000082B005460C0003D0084600F0A3FD02E0CD
:1007100000F0A0FD20300246009021462846FFF759
:10072000D2FD049B059A04460F4618431143084323
:1007300014D0184610431BD0009840210A1A1846BE
:100740000599FFF7D0FD05460E46009A05990498D5
:10075000FFF7B9FD084305D0012004E020463946E3
:1007600007B0F0BD0020C11705430E432C433743AB
:1007700000990E986305401A7905E40A00220C439B
:10078000FD0A0A3002D500200146E9E701051019EB
:1007900069410C9C0D9D00196941FFF7A2FFDFE73D
:1007A00010B5C046C046C046C04610BD10B5C046D4
:1007B000C04610BD10B5C046C04610BD10B5C046FD
:1007C000C046C046C04610BD10B501460020084ACC
:1007D000084BDA62084ADA621A46126A0C239A4314
:1007E0008B000C2423401A43024B1A6210BD0000F8
:1007F0005A5A000000000240A5A5000070B504464A
:100800000D46044960180122294600F037F90020FE
:1008100070BD0000140D024070B504460E4615462A
:10082000214960180022314600F028F900201F49B4
:100830006118B20088502A781B49091F6018314698
:1008400000F01CF96A7818490C396018314600F03C
:1008500015F9AA78144910316018314600F00EF9E4
:10086000EA78114914316018314600F007F92A7905
:100870000D4918316018314600F000F96A790A49CB
:1008800020316018314600F0F9F8094880680121EC
:10089000C9038843A979C9030122D203114008433F
:1008A00003498860002070BD0C0D0240000C02401E
:1008B000000F024010B50346024818188C00025180
:1008C000002010BD000C024070B504460D460449DE
:1008D00060180122294600F0D1F8002070BD000008
:1008E000100D024008B50020009000BF00980028BD
:1008F000FCD008BD10B5C046C04610BD10B5C046FE
:10090000C04610BD10B5C046C04610BD10B5C046AB
:10091000C046C046C04610BD10B5C046C04610BD5A
:1009200010B5C046C04610BD10B5C046C04610BD8B
:1009300010B5C046C04610BD10B5C046C04610BD7B
:1009400010B5C046C04610BD10B5C046C04610BD6B
:1009500010B5C046C046C046C04610BD10B5C04622
:10096000C046C046C04610BD10B5FFF7D0FB10BD55
:1009700010B5C046C04610BD0449896A8143034A88
:1009800091621146896A01439162704700200040DC
:1009900010B500F06FFB10BDF8B504460D461646C5
:1009A0000E4F00BF3878002801D100F063FB00BF74
:1009B000EFF310800746012080F3108800BF00BFCE
:1009C00032462946204600F00BF80090F8B280F33A
:1009D000108800BF00BF0098F8BD00002858002014
:1009E000F7B582B007461646039801901820784361
:1009F0001B494018009000984069002804D0012845
:100A000011D0022826D11EE0009800F06BFB0546AD
:100A1000B54201D2002405E03446324601990098DF
:100A200000F0B9FB18E0009800F05CFB0546B54209
:100A300001D2284600E0304604462246019900983B
:100A400000F0A9FB08E032460199009800F064FB31
:100A5000044601E0002400BF00BF204605B0F0BD01
:100A60004058002010B5C046C04610BD10B5C04665
:100A7000C04610BD10B504F07BFF10BD10B5012AB3
:100A800005D1036801248C402343036004E003681C
:100A900001248C40A343036010BD024690680840C7
:100AA000002801D0012070470020FCE7024600200A
:100AB00010600120506008784B7818438B781843F9
:100AC000CB78184340231843106000209060704793
:100AD000024600BF90684007C00F0028FAD0D160DE
:100AE00000BF90688007C00F0028FAD0D068C0B25D
:100AF00070474160704710B500F001F810BD10B5A7
:100B000005F00AF810BD0000F8B505460C460027B0
:100B100000F0F6FA002C01D0012000E0002004468D
:100B20005048066A2B0000F0C4FB050417394D70CD
:100B300096004C48006840084000E107C90F084390
:100B40004849086000BF002C05D04648C068000531
:100B5000C00F0028F7D080E04248006A0121090751
:100B6000884340183F4908623F48C0680321084352
:100B70003D49C8603B480068022188436100022269
:100B8000114008433749086000BF002C05D03548A4
:100B900000694006C00F0028F7D05EE031480068C9
:100BA00004218843A1000422114008432D49086014
:100BB00000BF002C05D02B484069C004C00F00289E
:100BC000F7D04AE02748006A012109078843401806
:100BD000244908622548C068032189030843234942
:100BE000C8602048006808218843E10008221140BD
:100BF00008431C49086000BF002C05D019488069D3
:100C00004006C00F0028F7D027E01648006A0121EF
:100C100009048843401813490862154800684008D1
:100C20004000401C12490860142003F09FFA0D4850
:100C3000006810218843210110221140084309490E
:100C4000086000BF002C05D00648C06B4003C00FF1
:100C50000028F7D001E0042700BF00BF014806626A
:100C60003846F8BD00200040401D0240800D024083
:100C70000024004030B589B000241422564904A84D
:100C8000FFF7CAFA5448143000680390002000901F
:100C90000190029051480188684601814F4841887F
:100CA0006846C1804D488188684681804B48C1882C
:100CB000684641804948203001886846018048489C
:100CC00000680006450F2B0000F0F3FA05042E30F3
:100CD0003E4178004248C0684005400D6946098998
:100CE000884201D1089C1EE03D48C0684005400D87
:100CF0006946C988884201D1079C14E03848C06819
:100D00004005400D69468988884201D1069C0AE069
:100D10003348C0684005400D69464988884201D182
:100D2000059C00E0049C4BE02E4C49E0684600889E
:100D30002B4949698905890D884202D16846C489D1
:100D400001E0684684893BE00124E40338E024485C
:100D5000C06B8007800F032829D16846008920498D
:100D6000C9684905490D884201D1089C20E06846C0
:100D7000C0881B49C9684905490D884201D1079CB3
:100D800016E0684680881649C9684905490D8842B9
:100D900001D1069C0CE0684640881149C9684905A4
:100DA000490D884201D1059C02E0049C00E00D4CF5
:100DB0000B48C06BC005000F444301E0002400BF96
:100DC00000BF074800684005410F2046C840044660
:100DD000204609B030BD000064730000000C100014
:100DE000002000400048E80110B5044600F088F9F2
:100DF00006480068072109028843210207221202DF
:100E00001140084301490860002010BD0020004047
:100E100010B5044600F074F9064800680321C902C1
:100E20008843E1020322D2021140084301490860CD
:100E3000002010BD002000401EB501460022002009
:100E40000090019002903D480388684603813B482A
:100E500043886846C380394883886846838037481A
:100E6000C38868464380887803282DD16846008966
:100E7000334BDB685B055B0D984202D1C8780228D2
:100E800020DC6846C0882E4BDB685B055B0D984212
:100E900002D1C878022815DC68468088284BDB68B8
:100EA0005B055B0D984202D1C87803280ADC6846CE
:100EB0004088234BDB685B055B0D98420CD1C878FA
:100EC000062809DD06201EBDC8781E4B58431E4B60
:100ED000984201D90620F6E71948C06B03235B034B
:100EE00098430B785B030324640323401843144B9B
:100EF000D8631846C06B1C2398434B789B001C2476
:100F0000234018430E4BD8631846C06BFF23E133D0
:100F10009843CB785B01FF24E13423401843084B0E
:100F2000D8631846C06B800880008B789B079B0FA6
:100F30001843034BD8631046C5E70000000C1000AF
:100F4000002000400048E801006CDC0270B5044657
:100F50000D4620202040002814D020212046884320
:100F600004462A4621460B48FFF788FD032C02D190
:100F7000094805700CE00848027803210548FFF78E
:100F80007DFD05E02A4621460248001FFFF776FD59
:100F9000002070BD242000407000002001464A005F
:100FA000064BD21812885005400D054AD268D20A65
:100FB000D2020243024BDA6000207047000C10009E
:100FC0000020004070B504460025264600F098F841
:100FD00006480068E02188437101E022114008437F
:100FE0000249086000F004F8284670BD0020004067
:100FF000014802490860704700093D007400002064
:1010000000B5FFF7F5FF00BD10B5C046C04610BDE6
:1010100010B5C046C04610BD10B5C046C04610BD94
:1010200010B5C046C04610BD10B5C046C04610BD84
:1010300010B5C046C04610BD10B5C046C04610BD74
:1010400010B5C046C046C046C04610BD10B5C0462B
:10105000C046C046C04610BD10B5C046C04610BD13
:1010600010B5C046C046C046C04610BD10B5C0460B
:10107000C04610BD10B5124C01202061606111A066
:10108000A0611349E1610121890221620021A1626D
:101090006162E1620BA020630E4961631021A163CC
:1010A00000212164E16361640BA1E01DFFF7F3F807
:1010B0000AA12046FFF7EFF82020A07110BD000024
:1010C000285800205465726D696E616C0000000044
:1010D00070580020705C002052545400534547471C
:1010E0004552000010B501460A69CB689A4204D8FF
:1010F0008C68641EE41AA01801E0D41A601E10BDAA
:101100000248034988600348886070475A5A0000C3
:1011100000200040A5A50000F7B584B0044617469E
:1011200000200390E56800BF206902900298A84261
:1011300003D90298401B461E04E0A1680298281AB1
:10114000401C0E1AA068401BB04201D9304601E095
:10115000A068401B0646BE4201D2304600E0384639
:101160000646606840190190324605990198FFF7DC
:1011700053F8039880190390059880190590BF1BB8
:10118000AD19A068A84200D10025E560002FCBD1A1
:10119000039807B0F0BDF7B582B004461546E6687F
:1011A000A068871BAF420AD96068801900902A4660
:1011B00003990098FFF730F87019E06014E0019788
:1011C000606880190090019A03990098FFF724F84D
:1011D000E81B0190606800900398C119019A00987B
:1011E000FFF71AF80198E06005B0F0BD0FB47CB5C8
:1011F0000C0009AD01D0611E00E0002101910090BA
:10120000074B6A462946089800F02AF9002C02D0BC
:10121000009A002111707CBC08BC04B01847000083
:101220009D1B00007CB51D4616460C0001D0611EBA
:1012300000E0002101910090054B6A4629463046A6
:1012400000F00EF9002C02D0009A002111707CBD34
:101250009D1B00002021020C01D010211046020A23
:1012600001D010460839020901D01046091F820832
:1012700001D01046891E420801D0881E7047081A06
:101280007047F8B582B28BB2040C0D0C104658436F
:10129000002126465E43370C3604801979411646F4
:1012A0006E43370C36048019794126466E438919FE
:1012B000F8BD30B47446641E2578641CAB4204D378
:1012C000635D5B00E31830BC18471D46F8E702E099
:1012D00008C8121F08C1002AFAD1704770470020C1
:1012E00001E001C1121F002AFBD17047F0B51FB405
:1012F00086B00998089A030D0021024314D0514882
:10130000514A1818504305141198012810981AD002
:10131000281A401C00264D4F4D490096019104901B
:10132000002812DA444211E01198012449A301284F
:1013300001D11098C1430698119A84600360C2607D
:1013400041600BB0F0BD4042E4E7044621050020B7
:101350003F4A001C51410391029012E0E00707D080
:1013600032463B4601990098FFF782F801910090C0
:1013700032463B4610461946FFF77AF806460F46B6
:101380006410002CEAD10498039B0028029A099962
:10139000089806DAFFF76CF8019B009AFFF768F8E7
:1013A00005E0FFF7CDF8019B009AFFF7C9F8044666
:1013B0000E460022284BFFF75BF903D80020C043FC
:1013C000014607E00022254B20463146FEF79CFFF0
:1013D000FFF72EF9102409E0002C0ADB0A22002373
:1013E000FEF7EAFE079B30321A55641E02460A4396
:1013F000F2D11122641C079B121B1C19119B012B9B
:1014000003D0012308430ED10AE0084304D0112081
:1014100010900020119077E71098151A6D1E0BE0C0
:101420001098824202DD00236D1C03E0824201DA43
:1014300000236D1E002BEED0069811998260C160CA
:1014400030C07EE701FCFFFF104D0000000014409B
:101450000000F03F300000000000F0430000E03FDB
:10146000FFB597B0064600251BE2252876D100245B
:101470002746F749049400E00443761C32780120A3
:10148000203A90400842F7D130782A280ED0022224
:10149000307801463039092916D804990A2359436E
:1014A000303940181443761C0490F1E7189802C8AC
:1014B00004911890002904DA0120400304434842B3
:1014C000049002200443761C30782E2814D1042086
:1014D00004437078761C2A2809D11898761C80C895
:1014E000189009E00A214F43303FC719761C307825
:1014F000014630390929F5D930786C2810D006DC3E
:101500004C281AD068280ED06A2817D104E0742815
:1015100013D07A2812D110E00120400504430CE0DA
:101520000121090501E0032109050C43717881427D
:1015300003D1012000052418761C761C307866281B
:101540000BD013DC58287DD009DC00287BD045283F
:10155000F6D04628F4D047281AD1A9E118E063282C
:1015600035D0642870D0652812D1A1E170286CD0E4
:1015700008DC6728F1D069287DD06E280DD06F284F
:1015800006D1BCE073282ED0752873D0782859D0A6
:101590001A9A199990476D1C82E16002400F022847
:1015A00009D003280DD00428189801680DD00D60CB
:1015B000001D189074E11898EA1701680D604A60E0
:1015C000F6E7189801680D80F2E70D70F0E71898BB
:1015D0006A4601781172001D18900020507202A80E
:1015E0000090012005E0189802C818900020009192
:1015F000C04361070ED5002101E00199491C01910A
:10160000B94213DA8142F8DB019A0099895C00291A
:10161000F3D10BE0002101E00199491C01918142C5
:10162000FADB019A0099895C0029F5D101990498A7
:101630001A9B471A21463846199A00F099FA401920
:10164000019903E051E030E115E050E0451807E072
:10165000009800990078491C00911A9A19999047AE
:101660000198401E0190401CF2D1214638461A9B39
:10167000199A12E137E00A200021009001916002DE
:10168000410F022907D0189A01CA1892C21794462E
:10169000032908D00AE01898C01DC108C90005C96F
:1016A0001891944607E000B2C2179446042902D16B
:1016B00040B2C1178C4600226146944506DA0A46BC
:1016C0000021404291418C462D2102E0210504D5A4
:1016D0002B216A461173012103E0E10701D020218B
:1016E000F7E7029156E00A200AE0102008E01020F7
:1016F00000900021042004430191082703E0082002
:101700000021019100906002410F022907D0189A30
:1017100001CA189200229446032908D008E01898BC
:10172000C01DC108C90005C91891944603E080B2E4
:10173000042900D1C0B20021029121072AD53178B5
:101740000D91702906D0009A1021019B4A401A433E
:1017500005D00EE040216A461173012108E0614680
:10176000014306D030216A4611730D99517302214D
:101770000291009A0821019B4A401A430AD161460E
:10178000014301D1610705D530216A46117301215A
:101790007F1E02913178582904D02EA10E910DA9F7
:1017A0000D910DE030A1F9E76146019B009AFEF72B
:1017B00003FD0E9B8C469B5C0D9A521E0D9213707E
:1017C00061460143F0D10D9805A9081A2030019017
:1017D000600703D501200004844300E0012701983D
:1017E000874201DD381A00E000200199009041187D
:1017F000029809180498401A0490E00306D4214680
:101800001A9B199A049800F0B3F94519002706E0CD
:1018100003A81A9AC05D199990476D1C7F1C029805
:101820008742F5DBE0030CD521461A9B199A0498F0
:1018300000F09EF9451904E01A9A30201999904752
:101840006D1C0099481E00900029F5DC1FE0000087
:101850000928010030313233343536373839616286
:10186000636465660000000030313233343536374A
:101870003839414243444546000000000D980D9917
:101880000078491C0D911A9A199990476D1C01997D
:10189000481E01900029F1DC4DE100F059F945198D
:1018A000761C3078002800D0DFE528461BB0F0BD5C
:1018B000600700D406271898C01DC108C9004868F1
:1018C0000A680831C30FDB071891190001D09CA1E9
:1018D00008E0210501D59BA104E0E10701D09AA110
:1018E00000E09AA14300109130785B0865280CD085
:1018F00006DC452809D046281DD0472841D141E0C3
:10190000662818D067283CD13CE00021112F01DB6C
:10191000112000E0781C0191009008A911A8FFF7A0
:10192000E5FC139905910021119A15927F1C1298DC
:101930000197009150E00120C00703900120019021
:1019400008A9009711A8FFF7D1FC139A14990592E2
:101950000022119B009212981593059A019200297A
:1019600001D0104602E0791C40180190381A01D5C8
:10197000019804E04042401E0090781C0190C01B7A
:10198000029043E0012F00DA01270021112F01DD31
:10199000112000E038460191009008A911A8FFF736
:1019A000A5FC13990591119A0021129815920091A6
:1019B000019721070CD40599B94201DB019900E098
:1019C0000191012904DD159A491E515C302906D088
:1019D000B84201DA011D05DA0121029115E00199F1
:1019E000491EEDE7002805DC009941180091019996
:1019F000091A03E0019A411C914200DD019100990E
:101A0000401A401C02900120C0070390200706D412
:101A100002990198814202DB0020C043029000201D
:101A20006946C87707AF012103980337C907884281
:101A300024D0022011902B201290039800280CDA59
:101A4000404203902D20129007E00A210398FEF7F0
:101A50009DFB30317F1E039039701199481E119003
:101A60000029F2DC03980028EFD1791E1298087043
:101A70003078202108404530BF1E387006A8C01BB2
:101A8000C01D039010980078002800D00120019913
:101A900041180298C0170918039809180498401AA9
:101AA000401E0490E00306D421461A9B199A04981C
:101AB00000F05EF8451910980078002803D01A9AB3
:101AC000199990476D1CE00324D521461A9B199A59
:101AD000049800F04DF845191CE00098002807DB39
:101AE00000990598884203DD1598405C199901E03A
:101AF000199930201A9A904700986D1C401C00904C
:101B00000298401E0290002804D11A9A2E2019999A
:101B100090476D1C0199481E01900029DDDC05E00D
:101B200038781A9A7F1C199990476D1C0399481EA2
:101B300003900029F4DC21461A9B199A0498ACE61C
:101B40002D0000002B00000020000000000000001D
:101B5000F8B5044600251E461746880404D405E05F
:101B600039462020B0476D1C641EF9D52846F8BDC3
:101B7000FFB50446002581B01E46C80301D53027B5
:101B800000E02027880404D505E038460399B047D3
:101B90006D1C641EF9D5284605B0F0BD4A68002AC0
:101BA00006D00A68531C0B6010704868401E4860DD
:101BB0007047000008B50020FFF7F0F90121002070
:101BC000FEF7A2FF0120FEF7FFFD0421684602F0A8
:101BD000BDFA032168460170042141700321817020
:101BE0000221C170FFF728F901210420FEF78CFFC4
:101BF0000420FFF7E7F90020FFF7F6F80320FFF7CE
:101C000007F9FFF737F80149086008BD74000020A4
:101C10007CB504460D460721684602F097FA00217C
:101C2000684641708170C1700171417101218171FB
:101C300001706A4629462046FEF7EEFD7CBD10B5D0
:101C4000FFF7B8FF01211C20FFF780F903210020D6
:101C5000FFF7DEFF0A210020FFF7DAFF00F00EF8A1
:101C600004210020FEF730FE03210020FEF7C6FD10
:101C70000A210020FEF728FE10BD00000EB501214C
:101C80000620FFF763F94020FEF776FE072101A842
:101C900002F05CFA0021684641718171C1710172E4
:101CA000417201218172017101AA04210020FEF715
:101CB000B3FD00216846017101AA05210020FEF74D
:101CC000ABFD01AA07210020FEF7A6FD0121684611
:101CD000417101AA06210020FEF79EFD0122052187
:101CE0000020FEF7E7FD012206210020FEF7E2FDBD
:101CF000012207210020FEF7DDFD0421684602F0E5
:101D000025FA1021684601708221417000218170FE
:101D1000C17069460148FEF7C9FE0EBD00080040CB
:101D2000FEB5054600240020029002A9284600F0D6
:101D3000C1FB0446002C0BD014A0E3211E4B1FA2B4
:101D40000091019025A1012002F00EFB2046FEBD6E
:101D50000121890202984018006C00280BD121A0B3
:101D6000E921154B15A2009101901CA1012002F060
:101D7000FBFA0320EBE70122920202988018016C23
:101D800002988847064600F0E9FDE0E76273705F5D
:101D9000646973706C61795F706F72745F636C6596
:101DA00061725F696D706C3A2068616E646C657217
:101DB000206572726F720000106200002E2E5C426D
:101DC00053505C4F4C45445C6273705F6469737040
:101DD0006C61795F706F72742E6300004E4F5F54B8
:101DE000414700006273705F646973706C61795F72
:101DF000706F72745F636C6561725F696D706C3A6D
:101E000020636C656172206E6F7420737570706FE3
:101E100072740000FEB5054600240020029002A95D
:101E2000284600F047FB0446002C0BD01AA0C22124
:101E3000244B25A2009101902BA1012002F094FADD
:101E40002046FEBD2A480078002800D1F9E701218C
:101E5000890202984018C06B00280BD125A0CD2123
:101E6000184B19A2009101901FA1012002F07CFAE9
:101E70000320E6E70122920202988018C16B0298C3
:101E80008847064600F06AFD0446002C01D1184937
:101E900008702046D5E700006273705F6469737054
:101EA0006C61795F706F72745F6465696E69745F8D
:101EB000696D706C3A2068616E646C657220657241
:101EC000726F7200F36100002E2E5C4253505C4F23
:101ED0004C45445C6273705F646973706C61795FD8
:101EE000706F72742E6300004E4F5F5441470000C4
:101EF000040000206273705F646973706C61795FC5
:101F0000706F72745F6465696E69745F696D706C1F
:101F10003A206465696E6974206E6F742073757001
:101F2000706F72740000000008B5002100910091EC
:101F300002E00099491C009100998842F9D808BD37
:101F4000F8B50446002C00D1F8BD03F011FE0228BC
:101F50000ED120467D21C900FFF793F905467D2269
:101F6000D2000023FEF728F9074603F01DFD02E02A
:101F7000204600F003F80020E6E7000070B50446B4
:101F8000002500BF08E0064906480068FEF7FEF895
:101F90000646FFF7C9FF6D1CAC42F4D870BD0000C7
:101FA000E02E000074000020FFB585B00C461546F9
:101FB0001E460020049003900290FF2C01D8FF2DB4
:101FC00002D9042009B0F0BD03A9059800F072FA07
:101FD0000490049800280CD01AA0FF213431254B1E
:101FE00025A2009101902CA1012002F0BDF90498D6
:101FF000E8E70121890203984018C06C00280CD141
:1020000027A0FF213A311B4B1BA20091019022A176
:10201000012002F0A9F90320D4E7002E01D001200D
:1020200000E000200290EAB2E1B201239B02039893
:10203000C018C76C029B0398B847019000F08EFC53
:10204000C0E700006273705F646973706C61795FF0
:10205000706F72745F647261775F706978656C5FCE
:10206000696D706C3A2068616E646C65722065728F
:10207000726F7200656200002E2E5C4253505C4FFE
:102080004C45445C6273705F646973706C61795F26
:10209000706F72742E6300004E4F5F544147000012
:1020A0006273705F646973706C61795F706F727472
:1020B0005F647261775F706978656C5F696D706C81
:1020C0003A206472617720706978656C206E6F7455
:1020D00020737570706F727400000000FFB585B0DA
:1020E0000C4615461E46002004900390002E02D197
:1020F000042009B0F0BDFF2C01D8FF2D01D9042028
:10210000F7E703A9059800F0D5F904900498002892
:102110000CD017A0FF215D31214B22A2009101902C
:1021200028A1012002F020F90498E2E701218902A8
:1021300003984018006D00280CD124A0FF216331C2
:10214000174B18A2009101901EA1012002F00CF97A
:102150000320CEE7EAB2E1B201239B020398C01844
:102160003346076D0398B847029000F0F7FBC0E7CD
:102170006273705F646973706C61795F706F7274A1
:102180005F647261775F746578745F696D706C3AD3
:102190002068616E646C6572206572726F720000F7
:1021A000866200002E2E5C4253505C4F4C45445CCE
:1021B0006273705F646973706C61795F706F727461
:1021C0002E6300004E4F5F54414700006273705F02
:1021D000646973706C61795F706F72745F6472614F
:1021E000775F746578745F696D706C3A20647261B2
:1021F000772074657874206E6F7420737570706FBB
:1022000072740000FEB506460C46002500200290C0
:10221000002702A9304600F04DF90546002D0BD0ED
:1022200018A0FB21224B23A20091019029A101209B
:1022300002F09AF82846FEBD012189020298401852
:10224000406C00280CD125A0FF210231184B19A2A7
:10225000009101901FA1012002F086F80320EAE717
:10226000002C01D0012000E0002007460121890256
:10227000029840183946426C02989047019000F04D
:102280006DFBD8E76273705F646973706C61795F2E
:10229000706F72745F66696C6C5F696D706C3A2008
:1022A00068616E646C6572206572726F7200000006
:1022B0002C6200002E2E5C4253505C4F4C45445C17
:1022C0006273705F646973706C61795F706F727450
:1022D0002E6300004E4F5F54414700006273705FF1
:1022E000646973706C61795F706F72745F66696C3A
:1022F0006C5F696D706C3A2066696C6C206E6F74EF
:1023000020737570706F727400000000F7B586B0AE
:102310000C461546002600200590049000270390E7
:10232000002C01D0002D02D1042009B0F0BD05A978
:10233000069800F0BFF80646002E0CD029A0FF2119
:102340008131344B34A2009101903BA1012002F075
:102350000BF83046E9E70121890205984018406DE5
:1023600000280CD136A0FF2187312A4B2AA20091E8
:10237000019031A1012001F0F7FF0320D5E70121F1
:1023800089020598401804A9426D059890470746B0
:10239000002F03D0384600F0E1FAC6E70498002881
:1023A00006D00121890204984018006A00280CD147
:1023B00032A0FF219331174B17A2009101901EA16B
:1023C000012001F0D1FF0320AFE701218902049829
:1023D00040182A462146036A0498984703900398B8
:1023E000A3E700006273705F646973706C61795F6A
:1023F000706F72745F6765745F6275666665725F41
:10240000696D706C3A2068616E646C6572206572EB
:10241000726F7200A66200002E2E5C4253505C4F19
:102420004C45445C6273705F646973706C61795F82
:10243000706F72742E6300004E4F5F54414700006E
:102440006273705F646973706C61795F706F7274CE
:102450005F6765745F6275666665725F696D706CF3
:102460003A2067657420647269766572206E6F74B5
:1024700020737570706F7274000000006273705F7B
:10248000646973706C61795F706F72745F67657493
:102490005F6275666665725F696D706C3A20627521
:1024A00066666572206E6F7420737570706F7274DB
:1024B000000000000246002A01D0002901D10420BA
:1024C00070475068002801D10320F9E75068086080
:1024D0000020F5E77CB50025002600243448354966
:1024E000086035484860354888603548C8603548D8
:1024F00001F0A8FB0646002E0ED033A0FF21AA3122
:102500003C4B3DA20091019043A1012001F02CFF22
:10251000304600F023FA7CBD00F04AFB0546002D52
:102520000CD03FA0FF21B131324B33A2009101907A
:1025300039A1012001F018FF2846ECE700F0BCFAB1
:102540000446002C0CD141A0FF21B831294B2AA20E
:102550000091019030A1012001F006FF0320DAE78D
:1025600001204549087000202060164860604348FB
:10257000A0604348E06043482061434860614348AD
:10258000A0614348E0614348206243486062002004
:10259000A062E06241A0FF21CA31164B16A2009151
:1025A00001901DA1032001F0DFFE0020B3E7000031
:1025B0005F290000DC00002077290000D1280000FE
:1025C000411F0000EC0000206273705F646973704B
:1025D0006C61795F706F72745F696E69743A2068BC
:1025E000616E646C657220696E6974206661696CE5
:1025F00065640000C76200002E2E5C4253505C4FA1
:102600004C45445C6273705F646973706C61795FA0
:10261000706F72742E6300004E4F5F54414700008C
:102620006273705F646973706C61795F706F7274EC
:102630005F696E69743A207772617070657220729A
:102640006567206661696C65640000006273705F95
:10265000646973706C61795F706F72745F696E69C1
:10266000743A2077726170706572206465762065B7
:1026700072726F720000000004000020BD2600008E
:10268000151E0000211D000005220000D1270000BA
:10269000A91F0000DD2000000D23000062737020E0
:1026A00064697370616C7920706F727420696E69EF
:1026B0007420737563636573730A0000FEB5054685
:1026C00000240020029002A92846FFF7F3FE0446EA
:1026D000002C0BD01BA0A121254B26A2009101901C
:1026E0002CA1012001F040FE2046FEBD2B480078C1
:1026F000002801D00020F8E7012189020298401843
:10270000806B00280BD126A0AC21194B19A2009197
:10271000019020A1012001F027FE0320E5E701221E
:10272000920202988018816B02988847064600F052
:1027300015F90446002C02D10120184908702046E2
:10274000D3E700006273705F646973706C61795FD6
:10275000706F72745F696E69745F696D706C3A2036
:1027600068616E646C6572206572726F7200000041
:10277000D86100002E2E5C4253505C4F4C45445CA7
:102780006273705F646973706C61795F706F72748B
:102790002E6300004E4F5F544147000004000020AC
:1027A0006273705F646973706C61795F706F72746B
:1027B0005F696E69745F696D706C3A20696E6974E7
:1027C000206E6F7420737570706F7274000000005B
:1027D000FEB5054600240020029002A92846FFF716
:1027E00069FE0446002C0CD015A0FF211531204BAA
:1027F00020A20091019027A1012001F0B5FD204603
:10280000FEBD0121890202984018806C00280CD17D
:1028100022A0FF211B31164B16A2009101901DA191
:10282000012001F0A1FD0320EAE7012292020298B3
:102830008018816C02988847064600F08FF8DFE721
:102840006273705F646973706C61795F706F7274CA
:102850005F726566726573685F696D706C3A206857
:10286000616E646C6572206572726F7200000000A8
:10287000476200002E2E5C4253505C4F4C45445C36
:102880006273705F646973706C61795F706F72748A
:102890002E6300004E4F5F54414700006273705F2B
:1028A000646973706C61795F706F72745F72656672
:1028B000726573685F696D706C3A207265667265E7
:1028C0007368206E6F7420737570706F727400007F
:1028D00010B50446002C03D10A21FDF78FFF03E059
:1028E0000A210020FDF7F0FF002010BD70B504465E
:1028F0000D460026002C01D0002D01D1042070BD12
:1029000000211548FEF7F5F804210020FDF776FFB9
:10291000FF200130FFF708FB002605E0A15D0E480F
:10292000FEF7D6F8701C86B2B542F7DC00BF08216E
:102930000948FEF7B2F80128F9D0FF200130FFF76F
:10294000F3FA04210020FDF7BFFF01210248FEF742
:10295000D0F80020D3E7000000080040704770B5B1
:1029600004460D4603210020FDF748FF2946204676
:10297000FFF7BCFF70BD70B504460D460321002073
:10298000FDF7A2FF29462046FFF7B0FF70BD0146C4
:10299000012901D3042070470020FCE73EB504461E
:1029A00000250020029002A800F06EF80546002DD8
:1029B0000BD010A096211A4B1AA20091019022A1CF
:1029C000012001F0D1FC28463EBD02984069002854
:1029D0000BD11FA09C21124B12A2009101901AA1B1
:1029E000012001F0C1FC0320EEE702982146426974
:1029F0009047E9E76273705F646973706C61795F37
:102A0000777261707065725F66696C6C3A2063758D
:102A10007272656E7420646576206572726F7200E2
:102A2000066100002E2E5C4253505C4F4C45445CC6
:102A30006273705F646973706C61795F77726170E3
:102A40007065722E630000004E4F5F5441470000D6
:102A50006273705F646973706C61795F77726170C3
:102A60007065725F66696C6C3A2063757272656E30
:102A70007420646973706C6179206E6F7420737553
:102A800070706F727400000070B504460025002C51
:102A900001D1042070BD06480068FFF778FF0546A5
:102AA000002D01D02846F5E7024820600020F1E71C
:102AB00000000020AC00002000487047AC0000205F
:102AC0003EB500240020029002A8FFF7DDFF044677
:102AD000002C0BD00FA0AB211A4B1BA20091019030
:102AE00022A1012001F040FC20463EBD02988069F1
:102AF00000280BD11FA0B121124B13A2009101900D
:102B00001AA1012001F030FC0320EEE70298816950
:102B10008847EAE76273705F646973706C61795F1C
:102B2000777261707065725F726566726573683A1C
:102B30002063757272656E742064657620657272AA
:102B40006F7200001F6100002E2E5C4253505C4FDC
:102B50004C45445C6273705F646973706C61795F4B
:102B6000777261707065722E630000004E4F5F5483
:102B7000414700006273705F646973706C61795FD4
:102B8000777261707065725F726566726573683ABC
:102B90002063757272656E7420646973706C6179FC
:102BA000206E6F7420737570706F72740000000077
:102BB00000B58DB0302101A8FDF747FB3022084950
:102BC00001A8FDF729FB302201A90648FDF724FBE7
:102BD000002004490860044908600DB000BD0000F1
:102BE0006C600000AC0000200000002001460029BD
:102BF00001D1042070474868002801D10420F9E77A
:102C000048680068002801D10420F3E7486840685C
:102C1000002801D10420EDE70020EBE77CB5044655
:102C200000252046FFF7E2FF0546002D0BD00DA042
:102C3000E321164B16A2009101901DA1012001F085
:102C400093FB28467CBD01229202002120460830D9
:102C500000F04EFC01208002201881692046884740
:102C6000F0E700006273705F6F6C65645F647269A7
:102C70007665725F636C6561725F696D706C3A2036
:102C8000706172616D206572726F7200C25F0000C8
:102C90002E2E5C4253505C4F4C45445C6273705F17
:102CA0006F6C65645F6472697665722E6300000004
:102CB0004E4F5F54414700001CB50446002C0BD119
:102CC0000BA0D121154B16A2009101901CA101204F
:102CD00001F04AFB04201CBD00202070012292025A
:102CE00000212046083000F003FC0020F3E700003C
:102CF0006273705F6F6C65645F6472697665725F42
:102D00006465696E69745F696D706C3A2070617298
:102D1000616D206572726F7200000000A65F000096
:102D20002E2E5C4253505C4F4C45445C6273705F86
:102D30006F6C65645F6472697665722E6300000073
:102D40004E4F5F5441470000FFB585B004460F4623
:102D5000154600200490002603902046FFF746FF0A
:102D60000490049800280DD01FA0FF214D312A4B5C
:102D70002AA20091019031A1012001F0F5FA0498F6
:102D800009B0F0BD802F01D2402D0CD32DA0FF2122
:102D90005331214B21A20091019028A1012001F083
:102DA000E3FA0420ECE7E808C001C01986B269071D
:102DB000490F01208840C0B203900898012808D12B
:102DC00020460830805D0399084321460831885524
:102DD00007E020460830805D03998843214608318A
:102DE00088550020CCE700006273705F6F6C6564EB
:102DF0005F6472697665725F647261775F7069782B
:102E0000656C5F696D706C3A20706172616D2065F0
:102E100072726F7200000000146000002E2E5C427F
:102E200053505C4F4C45445C6273705F6F6C6564DB
:102E30005F6472697665722E630000004E4F5F54C6
:102E4000414700006273705F6F6C65645F64726914
:102E50007665725F647261775F706978656C5F69CF
:102E60006D706C3A206F7574206F662072616E67AA
:102E700065000000FEB504460D46002600272046EA
:102E8000FFF7B4FE0646002E0BD00EA0F621174B1E
:102E900017A2009101901EA1012001F065FA3046B1
:102EA000FEBD012D00D1FF270122920239462046A6
:102EB000083000F01DFB01208002201881692046A7
:102EC0008847EDE76273705F6F6C65645F64726979
:102ED0007665725F66696C6C5F696D706C3A2070C4
:102EE0006172616D206572726F720000DD5F0000BB
:102EF0002E2E5C4253505C4F4C45445C6273705FB5
:102F00006F6C65645F6472697665722E63000000A1
:102F10004E4F5F5441470000FEB506460C4615462D
:102F200000273046FFF762FE0746002F0CD013A0A3
:102F3000FF2170311D4B1EA20091019024A10120A0
:102F400001F012FA3846FEBD002C01D0002D0CD144
:102F500021A0FF217631154B15A2009101901CA1F3
:102F6000012001F001FA0420EDE73046083020602E
:102F70000120800228800020E5E700006273705F76
:102F80006F6C65645F6472697665725F6765745FB4
:102F90006275666665725F696D706C3A2070617209
:102FA000616D206572726F72000000003460000075
:102FB0002E2E5C4253505C4F4C45445C6273705FF4
:102FC0006F6C65645F6472697665722E63000000E1
:102FD0004E4F5F54414700006273705F6F6C6564D1
:102FE0005F6472697665725F6765745F6275666655
:102FF00065725F696D706C3A206F757470757420BE
:10300000706172616D206572726F72007CB50446EA
:1030100000252046FFF7EAFD0546002D0BD060A0F5
:103020007E21694B69A20091019070A1012001F0FD
:103030009BF928467CBD207801280BD16DA0842106
:10304000614B62A20091019068A1012001F08CF90E
:103050000320EFE700202070012292020021204689
:10306000083000F045FA6068806800287ED060680B
:103070008168012088470546002D0BD068A090216B
:10308000514B52A20091019058A1012001F06CF91E
:103090002846CFE76068C068002812D06068C16821
:1030A0000A2088470546002D0BD069A09921464B80
:1030B00046A2009101904DA1012001F055F928464A
:1030C000B8E760688168002088470546002D0BD06E
:1030D00069A0A1213C4B3DA20091019043A1012098
:1030E00001F042F92846A5E76068C068002812D0C0
:1030F0006068C168322088470546002D0BD054A077
:10310000AA21314B31A20091019038A1012001F098
:103110002BF928468EE760688168012088470546BC
:10312000002D0BD03EA0B221274B28A20091019088
:103130002EA1012001F018F928467BE76068C068DD
:10314000002813D06068C168642088470546002DB8
:103150000CD03FA0BB211C4B1CA20091019023A1CD
:10316000012001F001F9284664E7FFE7204600F05E
:10317000B1F80546002D0BD04AA0C421124B13A272
:103180000091019019A1012001F0EEF8284651E7C5
:10319000012020708002201801692046884749E7F5
:1031A0006273705F6F6C65645F6472697665725F8D
:1031B000696E69745F696D706C3A20706172616DDF
:1031C000206572726F7200008C5F00002E2E5C42D0
:1031D00053505C4F4C45445C6273705F6F6C656428
:1031E0005F6472697665722E630000004E4F5F5413
:1031F000414700006273705F6F6C65645F64726961
:103200007665725F696E69745F696D706C3A206192
:103210006C726561647920696E6974656400000090
:103220006273705F6F6C65645F6472697665725F0C
:10323000696E69745F696D706C3A2072657365744C
:103240002068696768206661696C65640000000039
:103250006273705F6F6C65645F6472697665725FDC
:10326000696E69745F696D706C3A2064656C617930
:10327000206661696C6564006273705F6F6C656481
:103280005F6472697665725F696E69745F696D709B
:103290006C3A207265736574206C6F772066616983
:1032A0006C6564006273705F6F6C65645F64726903
:1032B0007665725F696E69745F696D706C3A2069DA
:1032C0006E69742073657175656E636520666169EA
:1032D0006C65640010B504466068182102680148F6
:1032E000904710BD745F00007CB504460D46002673
:1032F000002C01D0002D0CD146A0FF2187314E4B70
:103300004EA20091019055A1012001F02DF804205A
:103310007CBD2868002802D0686800280CD151A024
:10332000FF218E31444B45A2009101904BA1012019
:1033300001F01AF80420EBE7002020706560544883
:1033400001218902611888605248012189026118AF
:10335000C860514801218902611808614F48012164
:103360008902611848614E4801218902611888610B
:103370004C48012189026118C8614B48012189022A
:10338000611808620122920200212046083000F0F4
:10339000AFF8012080022018816820468847064641
:1033A000002E2AD041A0FF21A131234B23A200915E
:1033B00001902AA1012000F0D7FF002060600121C8
:1033C000890261188860012189026118C8600121A1
:1033D000890261180861012189026118486101218F
:1033E000890261188861012189026118C86101217F
:1033F00089026118086230468AE735A0FF21AD31A5
:103400000D4B0EA20091019014A1032000F0ACFF1F
:1034100000207DE76273705F6F6C65645F64726942
:103420007665725F696E73743A20706172616D20A7
:103430006572726F72000000546000002E2E5C42B4
:1034400053505C4F4C45445C6273705F6F6C6564B5
:103450005F6472697665722E630000004E4F5F54A0
:10346000414700006273705F6F6C65645F647269EE
:103470007665725F696E73743A20696E7465726600
:1034800061636520706172616D206572726F720098
:103490000D300000B92C00001D2C0000752E00001E
:1034A00009350000492D0000192F00006273705F7C
:1034B0006F6C65645F6472697665725F696E737460
:1034C0003A20696E6974206661696C656400000069
:1034D0006273705F6F6C65645F6472697665725F5A
:1034E000696E737420737563636573730000000005
:1034F00010B50346002000BF02E01954441CA0B2DE
:103500008242FADC10BD0000F0B585B0064600240A
:10351000002500270020039002903046FFF766FB4D
:103520000446002C0DD038A0FF211131414B42A29E
:103530000091019048A1012000F016FF204605B03F
:10354000F0BD022710200390002559E0B020284349
:103550000146304600F0E4F80446002C0CD040A0B0
:10356000FF211F31334B34A2009101903AA1012079
:1035700000F0FAFE2046E2E73946304600F0D0F887
:103580000446002C0CD042A0FF212831294B2AA24E
:103590000091019030A1012000F0E6FE2046CEE728
:1035A0003046039900F0BCF80446002C0CD044A02F
:1035B000FF212F311F4B20A20091019026A1012055
:1035C00000F0D2FE2046BAE7E80102903146083109
:1035D000029BC81871684A68802190470446002CF5
:1035E0000CD043A0FF213831124B13A2009101905F
:1035F00019A1012000F0B8FE2046A0E7681CC5B262
:10360000082DA3D300209AE76273705F6F6C656426
:103610005F6472697665725F726566726573685F12
:10362000696D706C3A20706172616D206572726FA5
:1036300072000000F75F00002E2E5C4253505C4F7A
:103640004C45445C6273705F6F6C65645F64726963
:103650007665722E630000004E4F5F5441470000B4
:103660006273705F6F6C65645F6472697665725FC8
:10367000726566726573685F696D706C3A2070611F
:10368000676520636D64206661696C656400000095
:103690006273705F6F6C65645F6472697665725F98
:1036A000726566726573685F696D706C3A206C6FE5
:1036B0007720636F6C206661696C656400000000B0
:1036C0006273705F6F6C65645F6472697665725F68
:1036D000726566726573685F696D706C3A206869BF
:1036E000676820636F6C206661696C656400000028
:1036F0006273705F6F6C65645F6472697665725F38
:10370000726566726573685F696D706C3A2064619A
:103710007461207772697465206661696C65640004
:1037200013B5044660680121026801A890471CBDDA
:103730000146002901D1042070474868002801D1C2
:103740000420F9E78868002801D10420F4E700206C
:10375000F2E700007CB5044600252046FFF7E8FFAD
:103760000546002D0BD018A03921224B22A2009132
:10377000019029A1012000F0F7FD28467CBD2078AA
:1037800001280BD026A03F211A4B1BA200910190CB
:1037900021A1012000F0E8FD0320EFE720461430CE
:1037A000012189024018806900280BD127A04521FA
:1037B000104B11A20091019017A1012000F0D4FD3F
:1037C0000320DBE70020D9E76273705F6F6C6564EC
:1037D0005F68616E646C65725F636865636B5F727E
:1037E000656164793A20706172616D206572726FF3
:1037F00072000000E55E00002E2E5C4253505C4FCC
:103800004C45445C6273705F6F6C65645F68616EA9
:10381000646C65722E6300004E4F5F544147000098
:103820006273705F6F6C65645F68616E646C657213
:103830005F636865636B5F72656164793A206E6F80
:103840007420696E69746564000000006273705FC3
:103850006F6C65645F68616E646C65725F636865F8
:10386000636B5F72656164793A2064726976657230
:1038700020696E76616C69640000000070B50446D2
:10388000002500262046FFF765FF0546002D01D0E4
:10389000284670BD2046143001229202801801692A
:1038A0002046143088470646304600F0F3FAF0E729
:1038B00070B50446002500262046FFF74BFF05465D
:1038C000002D01D0284670BD204614300121890208
:1038D0004018C06800280CD0204614300A468018D2
:1038E000C1682046143088470646304600F0D2FAB8
:1038F0000546002020702846E5E7FFB581B0044664
:103900000E460025002000902046FFF723FF0546C5
:10391000002D02D0284605B0F0BD2046143001210C
:1039200089024018C769314620461430049B039A27
:10393000B8470090009800F0ADFAECE7FFB583B00F
:1039400004461D4600260027002D0CD117A0D421C7
:10395000214B22A20091019028A1012000F004FD3A
:10396000042007B0F0BD2046FFF7F4FE0646002E07
:1039700001D03046F5E72B4620461430059A0499CD
:1039800000F00EFB0746002F0DD01EA0E421124BC5
:1039900012A20091019019A1012000F0E5FC384627
:1039A00000F078FADDE70020DBE700006273705F6B
:1039B0006F6C65645F68616E646C65725F64726190
:1039C000775F746578745F696D706C3A20746578A0
:1039D00074206572726F72001D5F00002E2E5C42B3
:1039E00053505C4F4C45445C6273705F6F6C656410
:1039F0005F68616E646C65722E6300004E4F5F54A9
:103A0000414700006273705F6F6C65645F68616E50
:103A1000646C65725F647261775F746578745F6906
:103A20006D706C3A20647261772075746638206618
:103A300061696C6564000000F8B504460E46002517
:103A400000272046FFF786FE0546002D01D02846B8
:103A5000F8BD2046143001218902401831464269E0
:103A60002046143090470746384600F013FAEFE737
:103A70007CB506460C460025002C0BD10CA0F3218A
:103A8000194B1AA20091019020A1012000F06CFCBA
:103A900004207CBD3046FFF75DFE0546002D01D0B9
:103AA0002846F6E73046143020600020F1E7000099
:103AB0006273705F6F6C65645F68616E646C657281
:103AC0005F6765745F6472697665725F696D706C5B
:103AD0003A206F757470757420706172616D206525
:103AE00072726F72000000003D5F00002E2E5C427B
:103AF00053505C4F4C45445C6273705F6F6C6564FF
:103B00005F68616E646C65722E6300004E4F5F5497
:103B1000414700007CB50446002500262046FFF7FB
:103B200007FE0546002D0BD01AA05521234B24A2D9
:103B3000009101902AA1012000F016FC28467CBDCE
:103B4000207801280BD128A05B211C4B1CA20091DE
:103B5000019023A1012000F007FC0320EFE7211DC5
:103B600020461430FFF7C0FB0646002E0DD029A0DA
:103B70006221124B12A20091019019A1012000F0C4
:103B8000F3FB304600F086F9D9E7012020700020D1
:103B9000D5E700006273705F6F6C65645F68616E8B
:103BA000646C65725F696E69745F696D706C3A20F0
:103BB000706172616D206572726F7200025F000049
:103BC0002E2E5C4253505C4F4C45445C6273705FD8
:103BD0006F6C65645F68616E646C65722E63000073
:103BE0004E4F5F54414700006273705F6F6C6564B5
:103BF0005F68616E646C65725F696E69745F696D40
:103C0000706C3A20616C726561647920696E6974C8
:103C1000656400006273705F6F6C65645F68616EFD
:103C2000646C65725F696E69745F696D706C3A206F
:103C300064726976657220696E6974206661696C68
:103C4000656400007CB504460D460026002C01D0BA
:103C5000002D0CD149A0FF210A31514B51A20091F6
:103C6000019058A1012000F07FFB04207CBD286852
:103C7000002802D0686800280CD154A0FF2111311F
:103C8000474B48A2009101904EA1012000F06CFB2F
:103C90000420EBE70020207028460FC8241D0FC425
:103CA000143C564801218902611888635448012157
:103CB00089026118C86353480121890261180864A8
:103CC0005148012189026118486450480121890244
:103CD000611888644E48012189026118C8644D4802
:103CE00001218902611808654B4801218902611888
:103CF0004865012080022018816B204688470646CF
:103D0000002E2DD045A0FF212331254B25A2009167
:103D100001902CA1012000F027FB00200121890245
:103D200061188863012189026118C8630121890231
:103D3000611808640121890261184864012189021F
:103D400061188864012189026118C864012189020F
:103D5000611808650121890261184865304685E7C8
:103D600037A0FF212F310E4B0EA20091019015A11B
:103D7000032000F0F9FA002078E700006273705F1A
:103D80006F6C65645F68616E646C65725F696E73A9
:103D9000743A20706172616D206572726F720000FA
:103DA0005E5F00002E2E5C4253505C4F4C45445CDD
:103DB0006273705F6F6C65645F68616E646C65727E
:103DC0002E6300004E4F5F54414700006273705FE6
:103DD0006F6C65645F68616E646C65725F696E7359
:103DE000743A20696E7465726661636520706172F1
:103DF000616D206572726F7200000000153B00005B
:103E0000B13800007D380000393A0000613E000002
:103E1000FB3800003D390000713A00006273705FAA
:103E20006F6C65645F68616E646C65725F696E7308
:103E3000743A20696E6974206661696C656400007B
:103E40006273705F6F6C65645F68616E646C6572ED
:103E50005F696E737420737563636573730000002C
:103E600070B50446002500262046FFF773FC054682
:103E7000002D01D0284670BD204614300122920248
:103E8000801881692046143088470646304600F085
:103E900001F8F0E77047FFB58BB01D46149C002079
:103EA0000A900026099008900790069005900490CB
:103EB000039002900B98002806D0002D04D0002C0F
:103EC00002D01598002802D104200FB0F0BD0421C3
:103ED00061560C98081800B20390297A0D980818BA
:103EE00009216956401AE178401A05216156401AA5
:103EF00000B2029000264EE00020099045E0A07834
:103F000070430999401808900898C00807900898CD
:103F10004107490F8020C840069007991598405CDA
:103F200006990840002800D12BE009990398401811
:103F300000B205900298801900B2049005980028FC
:103F400002DB0498002800DA1BE00598802802D2E2
:103F50000498402800D314E00498C2B20598C0B277
:103F60000190012189020B9840180123C76901992A
:103F70000B98B8470A900A98002801D00A98A4E73D
:103F800000BF0998401C80B20990A178099881422D
:103F9000B5DC701C86B2E078B042ADDC002094E75E
:103FA000FFB58DB00D461E4600200C903B4F09908A
:103FB00000240890079006900590049003900D98B7
:103FC000002801D0002E02D1042011B0F0BD3446EB
:103FD00007950F9806905BE020780A2807D107958F
:103FE000397A0698081880B20690641C50E004A93B
:103FF000204600F055F808906846007C002801D162
:10400000641C45E000230AA93846089A00F073FFB3
:1040100003900398002808D13F20089000230AA9A4
:104020003846089A00F067FF03900398002803D1F0
:104030006846007C24182BE03846089900F036FFCB
:1040400009900998002803D16846007C24181FE0D5
:104050000AA909983B4600910190069802B2079878
:1040600001B20D98FFF717FF0C900C98002801D0B3
:104070000C98AAE76846008D08300009059005995C
:104080000798401880B207906846007C241800BF4B
:1040900020780028A0D100BF97E7000048730000F7
:1040A00030B503460A4600210024002B01D0002A27
:1040B00001D1002030BD19460878802803D20120A4
:1040C00010700878F6E70878E0252840C0280BD162
:1040D000022010700878C006400D4D78AD06AD0E78
:1040E000284304462046E5E70878F0252840E028E4
:1040F0000FD10320107008780007000C4D78AD0632
:104100002D0D28438D78AD06AD0E2843044620467C
:10411000D0E70878F8252840F02813D10420107043
:1041200008784007C00A4D78AD06AD0B28438D785E
:10413000AD062D0D2843CD78AD06AD0E28430446BF
:104140002046B7E7012010703F20B3E710B50A46BC
:104150000146002900D110BD02E000230B70491C6C
:104160001346521E002BF8D100BFF4E770B5054688
:1041700011481249486100208861052008610FE05C
:1041800000200E4988610E490E480068FBF7FEFFCB
:10419000012109060C1A00BF08488069A042FBD81B
:1041A00028466D1E0028EBD10448006940084000F5
:1041B0000249086170BD0000FFFFFF0000E000E061
:1041C000A08601007400002070B586B00646002E5F
:1041D0001CD127480068002811D1FF20F63025495E
:1041E00025A22AA3049001930292039100900B460A
:1041F0002FA239A1002000F0B7F800BFFEE7FF2290
:10420000F6321C491CA01A4B1B6898470024052550
:104210003348007C002802D1284606B070BD00F06B
:10422000C3FA00241CE0600121182D48AF3808189B
:1042300020300078012811D1600122182848AF38B9
:104240001018411C1E223046FCF72EF8002805D11C
:10425000600121182248AF38455C03E0601CC4B2FD
:10426000052CE0DB00BF00F0D1FA2846D5E70000BE
:10427000A80000200E74000074616720213D2028F2
:1042800028766F6964202A2930290000282573299F
:104290002068617320617373657274206661696C54
:1042A00065642061742025733A256C642E0000003B
:1042B0002E2E5C4D6964646C6577617265735C4534
:1042C0006173794C6F676765725C7372635C656C70
:1042D0006F672E6300000000656C6F6700000000D0
:1042E000605D002010B500241E48007C012801D12B
:1042F000204610BD00F0A8FA0446002C01D020464C
:10430000F7E7012000F062FA00211648C174017538
:10431000012000F0FFFB052000F0A8FA00F00AFBE6
:10432000012110480174012000F0F4FBFF2100205E
:1043300000F01EFBE321012000F01AFB0321022004
:1043400000F016FB0321084600F012FBE3210420D5
:1043500000F00EFBFF21052000F00AFB00F046FCF8
:104360002046C6E7605D00200FB4F0B58FB005466B
:104370000F463846FBF788FF0E90002402200D9070
:1043800000200B900C900790089009900A90052D42
:104390001ADDD7480068002810D1D648D649D7A2E0
:1043A000DDA3049001930292039100900B46E3A2D7
:1043B000ECA10020FFF7D8FF00BFFEE7CD4ACE49B1
:1043C000CEA0CB4B1B689847E848407C002804D11E
:1043D0000FB0F0BC08BC04B01847E448E0380078DF
:1043E000A84204DB3846FFF7EFFEA84200DAEFE709
:1043F000DE49DF393846FBF733FF002800D1E7E715
:104400001AA8069000F0D0F9D848407D00280FD0B7
:10441000D7480119D7A2204600F034FC0419A8009F
:10442000D54B1A58D2480119204600F02BFC04192C
:104430000121284600F0AEFC002808D0A800CF4B90
:104440001A58CB480119204600F01CFC041902211F
:10445000284600F09FFC00281ED0C54801193A46A6
:10446000204600F00FFC04190E980F280DD80F22DB
:104470000E98111A202207A8FBF7E0FEBC4801198C
:1044800007AA204600F0FEFB0419B9480119BCA296
:10449000204600F0F7FB04191C21284600F07AFCA6
:1044A000002857D0B2480119B6A2204600F0EAFB16
:1044B00004190421284600F06DFC002816D000F0F5
:1044C000BFF90590AA4801192046059A00F0DAFBC9
:1044D00004191821284600F05DFC002806D0A448E5
:1044E0000119A7A2204600F0CDFB04190821284697
:1044F00000F050FC002816D000F09AF905909C4876
:1045000001192046059A00F0BDFB04191021284628
:1045100000F040FC002806D09548011998A22046DA
:1045200000F0B0FB04191021284600F033FC0028ED
:1045300009D000F081F905908D4801192046059AAF
:1045400000F0A0FB04198A4801198FA2204600F050
:1045500099FB041920212846169A00F087FC0028B0
:104560000DD140212846179A00F080FC002806D182
:1045700080212846189A00F089FC002868D07C48E1
:10458000011982A2204600F07DFB04192021284653
:10459000169A00F06BFC002823D0754801192046BC
:1045A000169A00F06FFB041940212846179A00F074
:1045B0005DFC002807D06E48011975A2204600F066
:1045C00061FB04190DE080212846189A00F05EFC7A
:1045D000002806D06648011969A2204600F052FB67
:1045E000041980212846189A00F050FC00281AD09F
:1045F00068A205210BA8189BFCF7F8FD5C4801197F
:104600000BAA204600F03EFB041940212846179AC9
:1046100000F02CFC002806D05548011958A220466D
:1046200000F030FB041940212846179A00F01EFCC8
:10463000002806D04E4801192046179A00F022FBA8
:1046400004194B48011954A2204600F01BFB041921
:1046500001208002011B464800190590069B199A0B
:10466000FCF7E0FD064600200690A0190121890212
:10467000884203D8002E01DBA41901E00124A40222
:10468000201D0D99401801218902884203D90C464A
:10469000241F0D98241A3548C038007800280CD003
:1046A0000020334908553149C0393148FBF7D8FD5E
:1046B000002802D100F0AAF88AE62C48407D0028A4
:1046C00006D02B48011935A2204600F0DBFA041968
:1046D0002748011933A2204600F0D4FA04192146D4
:1046E000234800F0B7F800F091F800BF70E6000032
:1046F000A800002053020000267400006C65766557
:104700006C203C3D20454C4F475F4C564C5F564516
:1047100052424F53450000002825732920686173D9
:1047200020617373657274206661696C65642061D1
:10473000742025733A256C642E0000002E2E5C4DEB
:104740006964646C6577617265735C456173794C0B
:104750006F676765725C7372635C656C6F672E630D
:1047600000000000656C6F6700000000605D0020C5
:10477000785D00201B5B0000900000207800002086
:10478000200000005B0000005D2000002800000009
:104790003A000000256C6400290000001B5B306DAE
:1047A000000000000D0A000010B50748807C0028BA
:1047B00005D000F058F801210348017502E00121FD
:1047C0000148C17410BD0000605D002010B50446B2
:1047D0000D488474807C002814D00B48007D00288C
:1047E00006D10948C07C002802D000F03CF809E05E
:1047F0000548007D002805D00348C07C002801D171
:1048000000F032F810BD0000605D002010B50748D0
:10481000807C002805D000F027F8002103480175AE
:1048200002E000210148C17410BD0000605D00205D
:1048300000A070472000000000A07047200000008A
:1048400000A070472000000010B50024FCF7A0F87D
:10485000204610BD70B504460D462A46214600206C
:10486000FCF79AF870BD70477047000010B586B02D
:104870000446052C1CDD10480068002811D1FF20DB
:1048800070300E490EA215A3049001930292039179
:1048900000900B461AA224A10020FFF765FD00BF7F
:1048A000FEE7FF227032054905A0034B1B689847BD
:1048B0001F48047006B010BDA8000020E27300007D
:1048C0006C6576656C203C3D20454C4F475F4C56EF
:1048D0004C5F564552424F5345000000282573292E
:1048E0002068617320617373657274206661696CFE
:1048F00065642061742025733A256C642E000000E5
:104900002E2E5C4D6964646C6577617265735C45DD
:104910006173794C6F676765725C7372635C656C19
:104920006F672E6300000000656C6F670000000079
:10493000805C002010B5002400BF14E06101621803
:104940000A495118481C1F21FBF77FFC0021600118
:10495000221806488154600122180448101820309B
:104960000170601CC4B2052CE8DB10BDB15C0020F6
:1049700030B585B004460D46052C1CDD1048006896
:10498000002811D1FF2056300E490FA215A3049024
:1049900001930292039100900B461BA224A10020D8
:1049A000FFF7E2FC00BFFEE7FF225632054906A0F2
:1049B000034B1B689847A1001F48455005B030BD08
:1049C000A8000020C57300006C6576656C203C3D36
:1049D00020454C4F475F4C564C5F564552424F5313
:1049E00045000000282573292068617320617373D6
:1049F000657274206661696C65642061742025733A
:104A00003A256C642E0000002E2E5C4D6964646CA7
:104A10006577617265735C456173794C6F67676533
:104A2000725C7372635C656C6F672E6300000000DC
:104A3000656C6F6700000000585D002010B586B0FF
:104A40000446002C1ED0012C1CD010480068002801
:104A500011D1FF202B300E490EA218A30490019310
:104A60000292039100900B461DA227A10020FFF7A0
:104A70007BFC00BFFEE7FF222B32054905A0034B5C
:104A80001B6898472248447406B010BDA800002057
:104A90009173000028656E61626C6564203D3D2065
:104AA00066616C736529207C7C2028656E61626C70
:104AB0006564203D3D2074727565290028257329A1
:104AC0002068617320617373657274206661696C1C
:104AD00065642061742025733A256C642E00000003
:104AE0002E2E5C4D6964646C6577617265735C45FC
:104AF0006173794C6F676765725C7372635C656C38
:104B00006F672E6300000000656C6F670000000097
:104B1000605D002010B586B00446002C1ED0012C2C
:104B20001CD010480068002811D1FF2037300E49F2
:104B30000EA218A3049001930292039100900B46D9
:104B40001DA227A10020FFF70FFC00BFFEE7FF22F8
:104B50003732054905A0034B1B6898472248447526
:104B600006B010BDA8000020A973000028656E6182
:104B7000626C6564203D3D2066616C736529207C14
:104B80007C2028656E61626C6564203D3D207472F6
:104B90007565290028257329206861732061737366
:104BA000657274206661696C656420617420257388
:104BB0003A256C642E0000002E2E5C4D6964646CF6
:104BC0006577617265735C456173794C6F67676582
:104BD000725C7372635C656C6F672E63000000002B
:104BE000656C6F6700000000605D00200EB50B482B
:104BF000007C002800D10EBD0120FFF71FFF08A098
:104C000009A1FF220C32124B00920191029011A2D5
:104C10001AA10320FFF7A8FB00BFECE7605D0020AE
:104C2000322E322E39390000456173794C6F676737
:104C300065722056257320697320696E69746961F5
:104C40006C697A6520737563636573732E00000069
:104C50007C7300002E2E5C4D6964646C6577617214
:104C600065735C456173794C6F676765725C7372DD
:104C7000635C656C6F672E6300000000656C6F6796
:104C800000000000F0B585B006460D4614462746E4
:104C9000002D1AD125480068002810D12C20244965
:104CA00024A225A3049001930292039100900B4645
:104CB0002AA235A10020FFF757FB00BFFEE72C22F8
:104CC0001B491CA0194B1B689847002C1AD1174888
:104CD0000068002810D12D2015492DA216A304909C
:104CE00001930292039100900B461CA226A1002082
:104CF000FFF73AFB00BFFEE72D220D4924A00B4B26
:104D00001B6898470BE03046761C012189028842D7
:104D100004D220782870641C6D1C00E002E020782A
:104D20000028F0D100BFE01B05B0F0BDA8000020B6
:104D30005E74000064737400282573292068617311
:104D400020617373657274206661696C65642061AB
:104D5000742025733A256C642E0000002E2E5C4DC5
:104D60006964646C6577617265735C456173794CE5
:104D70006F676765725C7372635C656C6F675F75A4
:104D800074696C732E630000656C6F67000000002F
:104D90007372630030B585B004460D46052C1CDDEA
:104DA00013480068002811D1BD208000114912A2CB
:104DB00018A3049001930292039100900B461EA247
:104DC00027A10020FFF7D0FA00BFFEE7BD22920026
:104DD000084909A0064B1B689847A1002248405883
:104DE0002840002802D0012005B030BD0020FBE79C
:104DF000A8000020327400006C6576656C203C3D94
:104E000020454C4F475F4C564C5F564552424F53DE
:104E100045000000282573292068617320617373A1
:104E2000657274206661696C656420617420257305
:104E30003A256C642E0000002E2E5C4D6964646C73
:104E40006577617265735C456173794C6F676765FF
:104E5000725C7372635C656C6F672E6300000000A8
:104E6000656C6F6700000000585D002070B5054656
:104E70000E461446002C07D031462846FFF78AFF1D
:104E8000002801D0012070BD0020FCE770B5054668
:104E90000E461446002C07D031462846FFF77AFF0D
:104EA000002801D0012070BD0020FCE7F8B50446C1
:104EB0000F4600250026002C02D02069002801D1D1
:104EC0000020F8BD25693946284600F050F806460E
:104ED000002E09D16069002804D039466069FFF7C7
:104EE000E5FFEEE70020ECE70C2070436968085806
:104EF00029684018E5E7FFB581B005460C46002754
:104F0000002600200090002D04D0002C02D028693B
:104F1000002802D1002005B0F0BD2F693846039962
:104F200000F025F80090009800280BD1686900284F
:104F300006D068692146049B039AFFF7DCFFEAE785
:104F40000020E8E779680C22009850430E18B088DA
:104F50002080B079A070F079E070307A2071707A9A
:104F60006071387DA0710020E0710120D3E7F8B5B1
:104F700004460A4600210025002300200090002658
:104F8000002C00D1F8BD002539E014276F43A0683C
:104F9000C1190868904204D88F880868C0199042E7
:104FA00000D82AE0887C002806D1C8880F88D71B43
:104FB000C01986B23046E5E7887C02281CD1002360
:104FC00017E05F008868C05B0F68C0190090009808
:104FD00090420CD1C888C01886B2C868002804D096
:104FE0005F00C868C05B801986B23046CAE7581CAB
:104FF00083B2088A9842E4DC00BF681C85B2608AEC
:10500000A842C2DC0020BDE70EB5FCF718FEFFF792
:1050100069F911A01121174B17A2009101901BA152
:105020000320FFF7A1F91B4800681BA11222114BB6
:1050300000920191029010A214A10420FFF794F9AC
:10504000FDF748FA0120FDF7A9FCFDF739FD00F056
:10505000CDFC00BFFEE70000484333324C313978C5
:105060002050524F4A4543542052554E4E494E47C8
:1050700000000000E05E00002E2E5C436F72655C55
:105080005372635C6D61696E2E6300004E4F5F5416
:10509000414700007400002053797374656D2063EC
:1050A0006C6F636B3A20257520487A00FEB5054683
:1050B0000E46244807682448006801902348006889
:1050C000009023480068001D00F09AFB681C00282F
:1050D0001DD1002E1BD000BF1E4948681C4909681D
:1050E00088601B4982680968CA6019490968091DF6
:1050F0008268516016490968091D8160154A144982
:1051000009684A6111460968491C116018E07C1958
:105110000F4800684460BC4206D20D480168091D72
:10512000009800F091FB0BE009480168091D019807
:1051300000F08AFB08480068844201D206480460F7
:10514000FEBD0000240000201400002018000020F4
:1051500010000020140800204000002010B5044674
:1051600000F08EFB31480068401C30490860304830
:105170000068002808D12E4804600846006801280D
:105180000ED100F095F90BE02A480068002807D1FD
:1051900027480068C06AE16A884201D82448046050
:1051A00025480068401C244908600846006860647F
:1051B00000BF00BF2149E06A0968884202D91F493F
:1051C000E06A086000BF00BF1422E16A51431C4A34
:1051D00089184868A0608268E260211D8268516079
:1051E00081601422E16A5143154A8A1862611422CF
:1051F000E16A5143124A5158491C1423E26A5A4346
:105200000F4B995000BF00BF00F048FB09480068F1
:10521000002809D000BF06480068C06AE16A8842D9
:1052200001D200F0B5FB00BF10BD0000200000203F
:10523000100000202C0000203C000020280000204E
:105240004405002010B516E000F01AFB0C48C068B9
:10525000C468201D00F0D4FA0A480068401E0949BD
:10526000086009480068401E0749086000F016FB06
:10527000204600F06DF8044800680028E4D110BD15
:1052800000080020200000201C000020F0B587B09E
:1052900001260027002409E013A0005D03A908559A
:1052A00003A8005D002800D102E0641C102CF3DB91
:1052B00000BF002511E00E4FA8000E494018002144
:1052C0000B4680220091019003A9384600F036FC7D
:1052D0000646002E00D102E06D1C012DEBDB00BF65
:1052E000304607B0F0BD000049444C4500000000C6
:1052F000D553000044000020FFB585B016460E9F30
:10530000B00000F081F90546002D0FD0702000F0AC
:105310007BF90446002C05D070212046FAF795FF52
:10532000256304E0284600F0CFFA00E00024002CBA
:105330000BD000210F980097029403910190324600
:10534000089B0699059800F051F8204609B0F0BD79
:1053500010B50446206B00F0B7FA204600F0B4FA0E
:1053600010BD000030B505231B0315484407640F2A
:10537000002C05D0C01DC008C000114C041B1B1B15
:10538000104C206000240F4D6C60C218083AD208FF
:10539000D2000D4C226000240B4D2D686C600A4D2C
:1053A0002D682C600146541A4C60074C24680C6030
:1053B000064D4C682C60064D4C682C6030BD0000DA
:1053C00028080020540000205C0000206400002019
:1053D0006000002000BFFFF735FF03480068012888
:1053E000F9D900F0D5FAF6E744050020FFB581B001
:1053F0000F460A9E0C9C039A9100A522206BFAF797
:105400001DFF216B0398401E800008180090009833
:10541000C008C000009000BF00984007400F00285F
:1054200001D1012000E00020002802D172B600BFA7
:10543000FEE700BF002F10D0002508E0795D204670
:1054400034304155785D002800D102E06D1C102DEC
:10545000F4D300BF00214320015500BF202E01D20C
:10546000012000E00020002802D172B600BFFEE754
:1054700000BF202E00D31F26E662E664201D00F048
:10548000E0F92046183000F0DCF924612020801B70
:10549000A0616462049A0199009800F0A1F920606B
:1054A0000B98002801D00B98046005B0F0BD0000F7
:1054B00010B5002406E0142161430E4A881800F05C
:1054C000B3F9641C202CF6D30B4800F0ADF90B485F
:1054D00000F0AAF90A4800F0A7F90A4800F0A4F978
:1054E000094800F0A1F90448084908600348084940
:1054F000086010BD44050020C4070020D807002024
:10550000EC070020000800201408002014000020F0
:105510001800002010B50146204800E0006803682C
:105520008B42FBD31D4B98420FD000BF1C4B9842BF
:1055300004D31C4B984201D8012300E00023002B28
:1055400002D172B600BFFEE700BF024643689B1857
:105550008B4204D143684C681B19436001460A46DC
:105560004B689B180468A34211D10F4C0368246850
:10557000A34208D04B68046864681B194B60036839
:105580001B680B6005E0084B1B680B6001E00368BB
:105590000B60884200D0016010BD00005400002064
:1055A00028080020275800205C0000200A480068D6
:1055B0000068002801D1012000E00020002804D06C
:1055C0000020C0430549086005E003480068C06842
:1055D0000068024908607047140000204000002065
:1055E00000BF08480068401C002801D1012000E0ED
:1055F0000020002802D172B600BFFEE700BF72B6DD
:1056000000BFFEE750000020FEB5054600200190D7
:10561000002D23D00820C043854201D9012000E09D
:105620000020002819D108356807400F002815D040
:105630006807400F0821081A00900021C94300980C
:10564000081AA84201D2012000E00020002802D15F
:1056500000982D1802E0002500E0002500F0F2F986
:1056600058480068002801D1FFF77CFEE817401C6D
:1056700000287DD0002DFCD053480068854277D8A3
:10568000524E3046046800BF5148844204D351480A
:10569000844201D8012000E00020002802D172B627
:1056A00000BFFEE700BF11E02646246800BF48485F
:1056B000844204D34748844201D8012000E00020FE
:1056C000002802D172B600BFFEE700BF6068A842A2
:1056D00002D220680028E7D13A48006884425DD0B1
:1056E00030680830019000BF39490198884205D3DD
:1056F00038490198884201D8012000E000200028A4
:1057000002D172B600BFFEE700BF2068306000BF64
:105710006068A84201D2012000E000200121484039
:10572000002802D172B600BFFEE700BF6068401BD0
:10573000102815D9671900BF7807400F002801D13C
:10574000012000E00020002802D172B600BFFEE771
:1057500000BF6068401B7860656030683860376003
:10576000194960680968081A17490860084600E086
:1057700014E0006818490968884203D2124800689A
:10578000154908600121C90760680843606000206E
:10579000206012480068401C1049086000F0DAFAE6
:1057A00000BF01984007400F002801D1012000E010
:1057B0000020002802D172B600BFFEE700BF0198AA
:1057C000FEBD00005C0000206000002054000020AE
:1057D00028080020275800206400002068000020CE
:1057E000001F01231B060360001F0160001F034B05
:1057F000036014380260203870470000E155000053
:1058000001460A694B68886898608B6848685860E8
:105810005068884201D18868506000200861106893
:10582000401E106010687047014608314160002139
:10583000C943816001460831C160016100210160F6
:10584000704700210161704710B502460B685C1C6F
:10585000002C01D1106907E01046083000E04068D4
:10586000446824689C42FAD944684C604C68A16042
:10587000886041600A611468641C146010BD0000F7
:1058800072B605480068401C03490860BFF34F8F9B
:10589000BFF36F8F704700005000002000BF094821
:1058A0000068002802D172B600BFFEE700BF0548BD
:1058B0000068401E0349086008460068002800D1BF
:1058C00062B670475000002070B505462E46002D88
:1058D00044D0083E344600BF2148844204D32148C6
:1058E000844201D8012000E00020002802D172B6D5
:1058F00000BFFEE700BF00BF6068C00F002802D1F4
:1059000072B600BFFEE700BF00BF2068002801D1CB
:10591000012000E00020002802D172B600BFFEE79F
:1059200000BF6068C00F002818D02068002815D17B
:10593000606840004008606000F084F80A496068D0
:1059400009684018084908602046FFF7E3FD07484A
:105950000068401C0549086000F0FCF970BD0000BB
:105960002808002027580020600000206C0000203C
:1059700070470000002004490861886103484861BD
:10598000072008617047000000E000E07FBB0000D6
:105990000120000703494860BFF34F8FBFF36F8FAB
:1059A0007047000000ED00E070B504460025002CB3
:1059B00015D000F047F800BF0B480068012800D15F
:1059C00000E00020002802D172B600BFFEE700BF51
:1059D00000212046FFF76AFB00F0BCF90546002DC8
:1059E00001D1FFF7D5FF70BD4C00002010B5FFF7C7
:1059F0004DFC0446012C0DD172B60020C0430D4968
:105A0000086001200C49086000200C49086000F083
:105A100067F80CE000BF601C002801D0012000E006
:105A20000020002802D172B600BFFEE700BF044884
:105A3000006810BD400000202C0000202400002041
:105A40004800002002480068401C01490860704777
:105A50004C0000201D480068002803D001201C498C
:105A6000086032E000201A49086000BF1948016848
:105A700007E000BF002902D172B600BFFEE700BFF9
:105A8000491E14204843144A1058002801D101200F
:105A900000E000200028ECD100BF14224A430E4B46
:105AA000D018426852684260024608324368934206
:105AB00001D1C26842604268D268084B1A6000BFD8
:105AC0000448016000BF1846006870474C00002081
:105AD0003400002028000020440500201000002091
